:100000000C9478000C94A0000C94A0000C94A00018
:100010000C94A0000C94A0000C94A0000C94A000E0
:100020000C94A0000C94A0000C94A0000C94A000D0
:100030000C94A0000C94A0000C94A0000C94A000C0
:100040000C949B060C94A0000C9469060C94430637
:100050000C94A0000C94A0000C94A0000C94A000A0
:100060000C94A0000C94A0000000000024002700C5
:100070002A0000000000250028002B0000000000DE
:1000800023002600290004040404040404040202DA
:100090000202020203030303030301020408102007
:1000A0004080010204081020010204081020000012
:1000B0000008000201000003040700000000000027
:1000C0000000204D6F746F724C3A2000204D6F7409
:1000D0006F72523A2000205049442056616C3A20F9
:1000E0000043616C6962726174696F6E0000E506BD
:1000F00011241FBECFEFD8E0DEBFCDBF11E0A0E0DE
:10010000B1E0EAEEF0E202C005900D92AA35B10727
:10011000D9F722E0AAE5B1E001C01D92A136B207ED
:10012000E1F710E0C8E7D0E004C02197FE010E948B
:100130007B0EC737D107C9F70E94CC070C94731008
:100140000C940000AF92BF92CF92DF92EF92FF9299
:100150000F931F93CF93DF936C017B018B01040FEF
:10016000151FEB015E01AE18BF08C017D10759F08B
:100170006991D601ED91FC910190F081E02DC601CD
:100180000995892B79F7C501DF91CF911F910F91C7
:10019000FF90EF90DF90CF90BF90AF900895FC015B
:1001A000538D448D252F30E0842F90E0821B930BDC
:1001B000541710F0CF96089501970895FC01918D82
:1001C000828D981761F0A28DAE0FBF2FB11D5D9685
:1001D0008C91928D9F5F9F73928F90E008958FEF27
:1001E0009FEF0895FC01918D828D981731F0828DDB
:1001F000E80FF11D858D90E008958FEF9FEF089532
:10020000FC01918D228D892F90E0805C9F4F821B95
:1002100091098F739927089589E691E00E94000162
:1002200021E0892B09F420E0822F089580E090E0FE
:10023000892B29F00E940C0181110C940000089573
:10024000FC01A48DA80FB92FB11DA35ABF4F2C914B
:10025000848D90E001968F739927848FA689B78942
:100260002C93A089B1898C91837080648C93938D39
:10027000848D981306C00288F389E02D80818F7DDC
:1002800080830895EF92FF920F931F93CF93DF9394
:10029000EC0181E0888F9B8D8C8D98131AC0E889C2
:1002A000F989808185FF15C09FB7F894EE89FF8991
:1002B0006083E889F98980818370806480839FBF2F
:1002C00081E090E0DF91CF911F910F91FF90EF902F
:1002D0000895F62E0B8D10E00F5F1F4F0F7311273F
:1002E000E02E8C8D8E110CC00FB607FCFACFE8897A
:1002F000F989808185FFF5CFCE010E942001F1CFE1
:10030000EB8DEC0FFD2FF11DE35AFF4FF0829FB7ED
:10031000F8940B8FEA89FB8980818062CFCFCF93DD
:10032000DF93EC01888D8823B9F0AA89BB89E8891D
:10033000F9898C9185FD03C0808186FD0DC00FB6C3
:1003400007FCF7CF8C9185FFF2CF808185FFEDCF41
:10035000CE010E942001E9CFDF91CF910895833033
:1003600081F028F4813099F08230A9F00895873027
:10037000A9F08830C9F08430B1F4809180008F7D7D
:1003800003C0809180008F7780938000089584B5AA
:100390008F7784BD089584B58F7DFBCF8091B000A9
:1003A0008F778093B00008958091B0008F7DF9CF52
:1003B0001F93CF93DF93282F30E0F901E255FF4FD1
:1003C0008491F901E656FF4FD491F901EA57FF4FA6
:1003D000C491CC23A9F0162F81110E94AF01EC2FFC
:1003E000F0E0EE0FFF1FEE58FF4FA591B4918FB7CD
:1003F000F894EC91111108C0D095DE23DC938FBFE7
:10040000DF91CF911F910895DE2BF8CFCF93DF932B
:1004100090E0FC01E656FF4F24918A579F4FFC0164
:1004200084918823D1F090E0880F991FFC01E8594E
:10043000FF4FA591B491FC01EE58FF4FC591D491A7
:10044000623071F49FB7F8943C91822F809583239A
:100450008C93E8812E2B28839FBFDF91CF91089545
:100460008FB7F894EC912E2B2C938FBFF6CF8E3054
:1004700008F08E508770806480937C0080917A00B1
:10048000806480937A0080917A0086FDFCCF809111
:1004900078009091790008953FB7F89480915F01BA
:1004A00090916001A0916101B091620126B5A89B75
:1004B00005C02F3F19F00196A11DB11D3FBFBA2FF6
:1004C000A92F982F8827BC01CD01620F711D811DB6
:1004D000911D42E0660F771F881F991F4A95D1F73B
:1004E00008958F929F92AF92BF92CF92DF92EF9238
:1004F000FF924B015C010E944C026B017C010E9447
:100500004C026C197D098E099F09683E7340810574
:100510009105A8F321E0821A9108A108B10888EE9C
:10052000C80E83E0D81EE11CF11C81149104A104C3
:10053000B10429F7FF90EF90DF90CF90BF90AF907C
:100540009F908F9008952F923F924F925F926F925B
:100550007F928F929F92AF92BF92CF92DF92EF9253
:10056000FF920F931F93CF93DF93CDB7DEB72A97F8
:100570000FB6F894DEBF0FBECDBF1C016A017B0130
:10058000DC011E968D909D90AD90BC905197C90155
:10059000B8010E94A80B2B013C01D1011A968D9144
:1005A0009D910D90BC91A02D89839A83AB83BC83D0
:1005B000BC01CD019058A30192010E94070C0E943A
:1005C000360E7A876987A5019401C701B6010E949A
:1005D000570DA30192010E94C40D0E94360E6D8337
:1005E0007E838F8398870D811E81E985FA850E179A
:1005F0001F078CF029813A814B815C81C301B201D4
:100600000E94070C0E94360E7A8769870617170723
:1006100014F41A870987A985BA85BD01BB0F880B19
:10062000990B0E94A80BA50194010E94580D2B0163
:100630003C01A7019601C501B4010E94A10B881FCE
:100640008827881F8983A7019601C301B2010E94F0
:10065000A10B881F8827881FB981B81719F1F101EC
:10066000C686D786E08AF18AF1016685778580891A
:1006700091892A960FB6F894DEBF0FBECDBFDF91E9
:10068000CF911F910F91FF90EF90DF90CF90BF908F
:10069000AF909F908F907F906F905F904F903F9022
:1006A0002F900895D1011E964D925D926D927C928D
:1006B0005197DACF8F929F92AF92BF92CF92DF92F3
:1006C000EF92FF920F931F932FB7F894C0905B01A6
:1006D000D0905C01E0905D01F0905E012FBFDC01E5
:1006E00016960D911D912D913C9119974601570138
:1006F000801A910AA20AB30A950184011696CD9236
:10070000DD92ED92FC921997ED91FC910280F381BC
:10071000E02D09951F910F91FF90EF90DF90CF9002
:10072000BF90AF909F908F900895FC0101900020A2
:10073000E9F73197AF01481B590BBC0189E691E0FD
:100740000C94A200CF93DF93FC014481558160811A
:10075000718189E691E00E94A200EC0182E291E0C1
:100760000E9495038C0F9D1FDF91CF910895EF920A
:10077000FF920F931F93CF93DF93EC018B0160E007
:1007800001151105B1F489810E94D80160E08881CA
:100790000E94D801CA8161E08C2F0E94060260E0AD
:1007A0008C2FDF91CF911F910F91FF90EF900C94C0
:1007B000D801101611065CF589810E94D80161E00C
:1007C00088810E94D801980117FF03C031952195B7
:1007D0003109AB81BC810E946C0E2FEF30E040E00C
:1007E00050E00E94C50C122F032FE22EF32EFE8242
:1007F000ED82CA8161E08C2F0E940602E114F104AF
:1008000071F28FEFE816F10441F461E0C9CF8881FD
:100810000E94D80161E08981D4CFEC2FF0E0E2554D
:10082000FF4FE491E33061F148F4E130C9F0E23088
:1008300011F180E8E816F10444F7B1CFE73061F137
:10084000E83091F1E430A9F78091800080628093D4
:100850008000812F902F90938B0080938A0004C09A
:1008600084B5806884BD17BDDF91CF911F910F9132
:10087000FF90EF90089584B5806284BD18BDF4CFD9
:1008800080918000806880938000812F902F9093CA
:10089000890080938800E8CF8091B00080688093C1
:1008A000B0001093B300E0CF8091B00080628093DD
:1008B000B0001093B400D8CFCF93DF93EC0161E088
:1008C00088810E94060261E089810E94060261E03F
:1008D0008A810E94060270E060E0CE01DF91CF9134
:1008E0000C94B7038F929F92AF92BF92CF92DF92F8
:1008F000EF92FF92CF93DF93CDB7DEB7A1970FB6FC
:10090000F894DEBF0FBECDBF809100019091010130
:10091000009709F05FC080912F0290913002909370
:100920002C0280932B02809131029091320290939D
:100930002E0280932D0281E090E09093010180933C
:10094000000185E291E00E949503C0900001D090E3
:1009500001010D2C000CEE08FF08F7FE55C06DE2FA
:1009600089E691E00E94420122273327A9012C1930
:100970003D094E095F0919A2CE0181967C019AE0DA
:10098000892E912CA12CB12CCA01B901A501940189
:100990000E94260D605DF70162937F0121153105EC
:1009A0004105510589F7E114F10419F0C7010E94CE
:1009B0009503A1960FB6F894DEBF0FBECDBFDF91B1
:1009C000CF91FF90EF90DF90CF90BF90AF909F902E
:1009D0008F900895019709F0B4CF10920101109201
:1009E000000110922C0210922B028FEF93E0909353
:1009F0002E0280932D0210923202109231029093B7
:100A0000300280932F029DCFA701960119A2CE013B
:100A100081967C018AE0882E912CA12CB12CCA01F0
:100A2000B901A50194010E94260D605DF701629352
:100A30007F01211531054105510589F7B4CF0F9389
:100A40001F93CF93DF93EC0188819981009759F030
:100A50002A813B812617370730F081E0DF91CF9163
:100A60001F910F9108958B016F5F7F4F0E94A60F1A
:100A7000009759F0998388831B830A832C813D81D9
:100A8000232B59F7FC011082E8CF80E0E7CFCF930A
:100A9000DF93EC0188819981009711F00E941D0F6E
:100AA000198218821D821C821B821A82DF91CF91CB
:100AB0000895EF92FF920F931F93CF93DF93EC0172
:100AC0007B01CB010E94630B0097A9F00C811D8173
:100AD000080F191FB801CE010E941F05882399F045
:100AE000288139818C819D81B701820F931F0E94DB
:100AF0005C0B1D830C83CE01DF91CF911F910F9171
:100B0000FF90EF900895CE010E944705F4CFEF9239
:100B1000FF920F931F93CF93DF93EC01FB01E080D3
:100B2000F180E114F10411F1048115810115110521
:100B3000A9F08C819D81080F191FB801CE010E9478
:100B40001F05882399F0288139818C819D81B70107
:100B5000820F931F0E946C101D830C83CE01DF91C6
:100B6000CF911F910F91FF90EF900895CE010E94B9
:100B70004705F4CFEF92FF920F931F93CF93DF932C
:100B8000EC017B018A01BA010E941F0581110BC093
:100B9000CE010E944705CE01DF91CF911F910F91A9
:100BA000FF90EF9008951D830C83B7018881998190
:100BB0000E946C10F0CFEF92FF920F931F93CF9390
:100BC000DF93CDB7DEB762970FB6F894DEBF0FBEE6
:100BD000CDBF8C01CB01F8011182108213821282E9
:100BE000158214824AE09E012F5F3F4F7901B901BF
:100BF0000E946C0BF70101900020E9F73197AF01DB
:100C00004E195F09B701C8010E94BA0562960FB676
:100C1000F894DEBF0FBECDBFDF91CF911F910F9132
:100C2000FF90EF900895CF93DF93EC01FB018617BF
:100C3000970749F0608171816115710541F0448128
:100C400055810E94BA05CE01DF91CF9108950E948F
:100C50004705F9CFFC01118210821382128215829E
:100C60001482FB0101900020E9F73197AF01461B88
:100C7000570B0C94BA05FC0180819181009711F00B
:100C80000C941D0F08951F920F920FB60F9211240E
:100C90002F933F934F935F936F937F938F939F9384
:100CA000AF93BF93EF93FF9389E691E00E942001F9
:100CB000FF91EF91BF91AF919F918F917F916F9134
:100CC0005F914F913F912F910F900FBE0F901F900A
:100CD00018951F920F920FB60F9211242F938F9396
:100CE0009F93EF93FF93E0917901F0917A018081D6
:100CF000E0917F01F091800182FD1BC09081809185
:100D000082018F5F8F7320918301821741F0E09100
:100D10008201F0E0E759FE4F958F80938201FF91A9
:100D2000EF919F918F912F910F900FBE0F901F9079
:100D300018958081F4CF1F920F920FB60F92112455
:100D40002F933F938F939F93AF93BF9380915B01BA
:100D500090915C01A0915D01B0915E0130915A01CA
:100D600023E0230F2D3758F50196A11DB11D2093C7
:100D70005A0180935B0190935C01A0935D01B09355
:100D80005E0180915F0190916001A0916101B0913D
:100D900062010196A11DB11D80935F0190936001D6
:100DA000A0936101B0936201BF91AF919F918F9128
:100DB0003F912F910F900FBE0F901F90189526E82E
:100DC000230F0296A11DB11DD2CF8F929F92AF9299
:100DD000BF92CF92DF92EF92FF92CF93DF93E9E63B
:100DE000F1E01382128288EE93E0A0E0B0E0848309
:100DF0009583A683B7838CE091E09183808385EC13
:100E000090E09587848784EC90E09787868780ECD4
:100E100090E0918B808B81EC90E0938B828B82ECC5
:100E200090E0958B848B86EC90E0978B868B118E6F
:100E3000128E138E148EE5E4F2E01682138681E0A2
:100E400090E09587848797878687108A118A128A0F
:100E5000138A148A158A168A178A82E794E0918386
:100E60008083158214821382128287E090E090873B
:100E7000878388EC90E092878187EEE3F2E08DE053
:100E800080838CE081838BE082838FEF90E094837A
:100E90008383E7E3F2E028E0208329E021832AE04E
:100EA00022839483838382E190E00E94810EFC017F
:100EB000812C912C80E8A82E8FE3B82E8282938219
:100EC000A482B582CEE1D1E0D183C083C12CD12CE4
:100ED00090E2E92E91E4F92EC286D386E486F58667
:100EE000F0933602E093350282E190E00E94810E99
:100EF000FC0182829382A482B582D183C083C286A0
:100F0000D386E486F5869093340280933302EAE236
:100F1000F2E08EE190E09283818388E592E0948311
:100F200083838FEF93E096838583108617828EE00C
:100F30008083E6E0F2E080E197E2A0E0B0E0848B1D
:100F4000958BA68BB78B118E108E10A211A212A2B8
:100F500013A280E090E0A0EAB0E484839583A683A6
:100F6000B783108611861286138614861586168618
:100F700017868FEF90E0A0E0B0E0808B918BA28B82
:100F8000B38BDF91CF91FF90EF90DF90CF90BF9028
:100F9000AF909F908F900895CF93DF93CDB7DEB73A
:100FA000A4970FB6F894DEBF0FBECDBF789484B57A
:100FB000826084BD84B5816084BD85B5826085BD55
:100FC00085B5816085BD80916E00816080936E00E3
:100FD00010928100809181008260809381008091D5
:100FE0008100816080938100809180008160809386
:100FF00080008091B10084608093B1008091B00046
:1010000081608093B00080917A00846080937A0040
:1010100080917A00826080937A0080917A0081606A
:1010200080937A0080917A00806880937A00109291
:10103000C100E0917901F0917A0182E08083E09132
:101040007501F09176011082E0917701F0917801BD
:1010500087E6808310928101E0917D01F0917E010D
:1010600086E08083E0917B01F0917C01808180614A
:101070008083E0917B01F0917C0180818860808396
:10108000E0917B01F0917C01808180688083E09118
:101090007B01F0917C0180818F7D80836BE271E028
:1010A000CE0101960E942A06CE0101960E94A2035B
:1010B000CE0101960E943B0662E080914C020E94A4
:1010C00006028EE392E00E945C0487E392E00E94B5
:1010D0005C0461E086E00E94060284EF91E0909358
:1010E0001F0280931E0203E010E062E370E087E3DA
:1010F00092E00E94B70362E370E08EE392E00E9408
:10110000B70361E086E00E94D80164E670E080E009
:1011100090E00E94710270E060E087E392E00E943C
:10112000B70370E060E08EE392E00E94B70360E0F6
:1011300086E00E94D80164E670E080E090E00E94C2
:1011400071020150110989F666E371E0CE01019642
:101150000E942A06CE0101960E94A203CE010196AA
:101160000E943B0688248A94912C02E01FEF20E025
:10117000222E20E0322E20914C0230914D02332756
:10118000F901E255FF4F8491F901E656FF4FF490C3
:10119000F901EA57FF4FE490EE2009F401C28111F2
:1011A0000E94AF01EE2DF0E0EE0FFF1FE458FF4F5D
:1011B000A591B491EC91FE2291E080E009F490E0D9
:1011C000E92EF82E80915002882309F4ECC10E9488
:1011D0004C02C0905502D0905602E0905702F09019
:1011E00058029B01AC012C193D094E095F096901A8
:1011F0007A01609355027093560280935702909340
:10120000580280914E0290914F02092E000CAA0BB9
:10121000BB0B8C159D05AE05BF0510F41092500256
:101220008091510290915202892B09F0DAC1E0912C
:101230004902F0914A02309709F0099580914B02DA
:1012400081110AC041E040934B02E0914502F091C8
:101250004602309709F009958091000190910101B3
:101260008130910509F0D2C180912A020E94370293
:10127000E0912D02F0912E02C0902B02D0902C0212
:1012800096018C159D052CF09C01E817F9070CF4CC
:101290009F010D2C000CEE08FF08032E000C440BE0
:1012A000550B2C193D094E095F09AFEFB3E00E94C1
:1012B000E40C9F01FF0F440B550B2C193D094E09FF
:1012C0005F090E94C50C6901B901CE0107960E9411
:1012D000DB051A8219821C821B821E821D8246E057
:1012E00050E06FE371E0CE0101960E94BA05BE01A5
:1012F000695F7F4FCE0101960E9487051E861D867D
:10130000188A1F861A8A198ABC01CE010D960E947E
:101310001306CE010D960E94A203CE010D960E94E7
:101320003B06CE0101960E943B06CE0107960E9425
:101330003B060E944C0260911E0270911F02072E14
:10134000000C880B990B0E94A80B2B013C01B601E5
:101350000D2C000C880B990B0E94A80B9B01AC0173
:10136000C301B2010E94570D0E94360E0E94A80BC5
:1013700020910E0230910F02409110025091110203
:101380000E94070C20E030E0A9010E94580D0E9445
:10139000360E6093060270930702809308029093C2
:1013A000090260E070E0CB010E94360E2B015092E2
:1013B0006801409267016C345FEF750714F077FFA6
:1013C0001CC19092640180926301109366010093A6
:1013D0006501A0903502B090360260916501709170
:1013E0006601072E000C880B990B0E94A80BAB011D
:1013F000BC01D501ED91FC910190F081E02DC5017A
:1014000009950E94360E8EE392E00E94B703609128
:10141000650170916601CE0107960E94DB0566E4C6
:1014200071E0CE010D960E942A06BE01695F7F4FD2
:10143000CE010D960E9487051A8219821C821B829A
:101440001E821D82BC01CE0101960E941306CE01B0
:1014500001960E94A203CE0101960E943B06CE0196
:101460000D960E943B06CE0107960E943B06A09077
:101470003302B09034026091630170916401072ED1
:10148000000C880B990B0E94A80BAB01BC01D50185
:10149000ED91FC910190F081E02DC50109950E942C
:1014A000360E87E392E00E94B70360914302709189
:1014B0004402CE0107960E94DB0560913C027091C8
:1014C0003D02CE010D960E94DB05B201CE0143968E
:1014D0000E94DB05B601CE0149960E94DB0563E55B
:1014E00071E0CE014F960E942A06BE01675E7F4FD3
:1014F000CE014F960E94870566ED70E00E94590567
:10150000BE016D5E7F4F0E9487056CEC70E00E940B
:101510005905BE01635F7F4F0E94870562EC70E052
:101520000E945905BE01695F7F4F0E9487051A829C
:1015300019821C821B821E821D82BC01CE01019673
:101540000E941306CE0101960E94A203CE010196CD
:101550000E943B06CE014F960E943B06CE01499663
:101560000E943B06CE0143960E943B06CE010D969B
:101570000E943B06CE0107960E943B0662E370E0A4
:1015800080E090E00E9471022114310409F4F3CD4F
:101590000E940C01882309F4E5CD0E940000E2CDF1
:1015A000F12CE12C0FCE80915302909154028E15B4
:1015B0009F0509F435CE0E944C026093550270934A
:1015C0005602809357029093580231E030935002B4
:1015D000F0925402E0925302F0925202E0925102D1
:1015E0001FCE80914B02882309F436CE10924B0215
:1015F000E0914702F09148022CCE909266018092D1
:1016000065011093640100936301E3CE892B09F017
:10161000B5CF70E060E08EE392E00E94B70370E027
:1016200060E087E392E00E94B70380912A020E9463
:10163000370220912F0230913002821793072CF548
:101640009093300280932F021A8219821C821B828F
:101650001E821D826BE070E0CE0101960E941F0584
:1016600081111FC0CE0101960E9447054D815E8108
:1016700069817A8189E691E00E94A20082E291E08C
:101680000E949503CE01019677CF209131023091CF
:10169000320228173907C4F6909332028093310240
:1016A000D3CF8BE090E09E838D8361EE70E08981E3
:1016B0009A810E945C0BDACFFB01DC0105900D9250
:1016C0000020E1F70895FC0105900020E9F78095DE
:1016D00090958E0F9F1F0895BB274A3031F49923B0
:1016E00022F4BDE2909581959F4F0C94780BBB2717
:1016F000FB015527AA27880F991FAA1FA41710F0CE
:10170000A41B83955051B9F7A05DAA3308F0A95DD9
:10171000A193009779F7B111B1931192CB010C9479
:10172000910BDC01FC01672F71917723E1F7329770
:1017300004C07C916D9370836291AE17BF07C8F3AC
:1017400008950E94E30B08F481E00895E89409C02D
:1017500097FB3EF490958095709561957F4F8F4FE4
:101760009F4F9923A9F0F92F96E9BB279395F695FA
:10177000879577956795B795F111F8CFFAF4BB0F78
:1017800011F460FF1BC06F5F7F4F8F4F9F4F16C0DC
:10179000882311F096E911C0772321F09EE8872F66
:1017A000762F05C0662371F096E8862F70E060E022
:1017B0002AF09A95660F771F881FDAF7880F96959B
:1017C000879597F90895990F0008550FAA0BE0E83F
:1017D000FEEF16161706E807F907C0F012161306F3
:1017E000E407F50798F0621B730B840B950B39F433
:1017F0000A2661F0232B242B252B21F408950A2699
:1018000009F4A140A6958FEF811D811D08950E94C6
:101810001A0C0C948B0C0E947D0C38F00E94840CE6
:1018200020F0952311F00C94740C0C947A0C112474
:101830000C94BF0C0E949C0C70F3959FC1F3950F04
:1018400050E0551F629FF001729FBB27F00DB11D44
:10185000639FAA27F00DB11DAA1F649F6627B00DD4
:10186000A11D661F829F2227B00DA11D621F739FBD
:10187000B00DA11D621F839FA00D611D221F749FCB
:101880003327A00D611D231F849F600D211D822F12
:10189000762F6A2F11249F5750409AF0F1F0882339
:1018A0004AF0EE0FFF1FBB1F661F771F881F915066
:1018B0005040A9F79E3F510580F00C94740C0C9495
:1018C000BF0C5F3FE4F3983ED4F386957795679518
:1018D000B795F795E7959F5FC1F7FE2B880F911D90
:1018E0009695879597F9089597F99F6780E870E036
:1018F00060E008959FEF80EC089500240A94161686
:10190000170618060906089500240A9412161306ED
:10191000140605060895092E0394000C11F488237B
:1019200052F0BB0F40F4BF2B11F460FF04C06F5F97
:101930007F4F8F4F9F4F089557FD9058440F551F6D
:1019400059F05F3F71F04795880F97FB991F61F041
:101950009F3F79F087950895121613061406551FB8
:10196000F2CF4695F1DF08C0161617061806991F24
:10197000F1CF86957105610508940895E894BB2719
:1019800066277727CB0197F90895052E97FB1EF45C
:1019900000940E94DC0C57FD07D00E94260D07FC26
:1019A00003D04EF40C94DC0C509540953095219565
:1019B0003F4F4F4F5F4F089590958095709561957B
:1019C0007F4F8F4F9F4F08950E94480DA59F900D08
:1019D000B49F900DA49F800D911D112408952F9206
:1019E0003F924F925F926F927F928F929F92AF92AF
:1019F000BF92CF92DF92EF92FF920F931F93CF93FC
:101A0000DF93CDB7DEB7CA1BDB0B0FB6F894DEBF92
:101A10000FBECDBF09942A88398848885F846E84B8
:101A20007D848C849B84AA84B984C884DF80EE8002
:101A3000FD800C811B81AA81B981CE0FD11D0FB60B
:101A4000F894DEBF0FBECDBFED010895A1E21A2EBE
:101A5000AA1BBB1BFD010DC0AA1FBB1FEE1FFF1F52
:101A6000A217B307E407F50720F0A21BB30BE40BA2
:101A7000F50B661F771F881F991F1A9469F76095E9
:101A80007095809590959B01AC01BD01CF010895A3
:101A9000A29FB001B39FC001A39F700D811D1124AF
:101AA000911DB29F700D811D1124911D08955058F4
:101AB000BB27AA270E946F0D0C948B0C0E947D0CF3
:101AC00038F00E94840C20F039F49F3F19F426F47A
:101AD0000C947A0C0EF4E095E7FB0C94740CE92F4F
:101AE0000E949C0C58F3BA17620773078407950786
:101AF00020F079F4A6F50C94BE0C0EF4E0950B2EB4
:101B0000BA2FA02D0B01B90190010C01CA01A0014F
:101B10001124FF27591B99F0593F50F4503E68F1AA
:101B20001A16F040A22F232F342F4427585FF3CFEB
:101B3000469537952795A795F0405395C9F77EF4BC
:101B40001F16BA0B620B730B840BBAF09150A1F005
:101B5000FF0FBB1F661F771F881FC2F70EC0BA0F8B
:101B6000621F731F841F48F4879577956795B79513
:101B7000F7959E3F08F0B0CF9395880F08F099270E
:101B8000EE0F9795879508950E94D80D0C948B0CB5
:101B90000E94840C58F00E947D0C40F029F45F3FB5
:101BA00029F00C94740C51110C94BF0C0C947A0C09
:101BB0000E949C0C68F39923B1F3552391F3951B74
:101BC000550BBB27AA2762177307840738F09F5F5E
:101BD0005F4F220F331F441FAA1FA9F335D00E2ECB
:101BE0003AF0E0E832D091505040E695001CCAF738
:101BF0002BD0FE2F29D0660F771F881FBB1F2617FB
:101C000037074807AB07B0E809F0BB0B802DBF01D1
:101C1000FF2793585F4F3AF09E3F510578F00C94A0
:101C2000740C0C94BF0C5F3FE4F3983ED4F386959C
:101C300077956795B795F7959F5FC9F7880F911DC1
:101C40009695879597F90895E1E0660F771F881FAD
:101C5000BB1F621773078407BA0720F0621B730B60
:101C6000840BBA0BEE1F88F7E09508950E943D0E95
:101C70006894B1110C94BF0C08950E94A40C88F0D4
:101C80009F5798F0B92F9927B751B0F0E1F0660F40
:101C9000771F881F991F1AF0BA95C9F714C0B13081
:101CA00091F00E94BE0CB1E008950C94BE0C672F19
:101CB000782F8827B85F39F0B93FCCF386957795B0
:101CC0006795B395D9F73EF4909580957095619599
:101CD0007F4F8F4F9F4F08950E94480D332312F47A
:101CE0008A1B9B0B0C94760E0E94480DB7FF08953B
:101CF000821B930B0895EE0FFF1F0590F491E02DCA
:101D000009940F931F93CF93DF938230910510F4C2
:101D100082E090E0E0915F02F091600230E020E02C
:101D2000B0E0A0E0309799F42115310509F44AC0DC
:101D3000281B390B24303105D8F58A819B81611528
:101D4000710589F1FB0193838283FE0111C04081FB
:101D500051810281138148175907E0F0481759074C
:101D600099F4109761F012960C93129713961C93A6
:101D70003296CF01DF91CF911F910F91089500937B
:101D80005F0210936002F4CF2115310551F0421724
:101D9000530738F0A901DB019A01BD01DF01F80109
:101DA000C1CFEF01F9CF9093600280935F02CDCF56
:101DB000FE01E20FF31F8193919322503109398381
:101DC0002883D7CF20915D0230915E02232B41F40E
:101DD000209104013091050130935E0220935D0251
:101DE00020910201309103012115310541F42DB7F5
:101DF0003EB74091060150910701241B350BE0913D
:101E00005D02F0915E02E217F307A0F42E1B3F0B78
:101E10002817390778F0AC014E5F5F4F241735075C
:101E200048F04E0F5F1F50935E0240935D02819316
:101E300091939FCFF0E0E0E09CCFCF93DF930097AA
:101E4000E9F0FC01329713821282A0915F02B091F7
:101E50006002ED0130E020E01097A1F42081318193
:101E6000820F931F20915D0230915E02281739077F
:101E700009F061C0F0935E02E0935D02DF91CF91C3
:101E80000895EA01CE17DF07E8F54A815B819E01DC
:101E900041155105B1F7E901FB83EA834991599155
:101EA000C40FD51FEC17FD0761F480819181029664
:101EB000840F951FE90199838883828193819B8395
:101EC0008A83F0E0E0E012968D919C911397009741
:101ED000B9F52D913C911197CD010296820F931F78
:101EE00020915D0230915E022817390739F630974C
:101EF00051F51092600210925F02B0935E02A093BF
:101F00005D02BCCFD383C28340815181840F951F72
:101F1000C817D90761F44E5F5F4F88819981480FD8
:101F2000591F518340838A819B819383828321152A
:101F3000310509F0B0CFF0936002E0935F029ECFCD
:101F4000FD01DC01C0CF13821282D7CFB0E0A0E048
:101F5000ECEAFFE00C94F10C8C01009751F4CB01FA
:101F60000E94810E8C01C801CDB7DEB7E0E10C9470
:101F70000D0DFC01E60FF71F9C0122503109E217FD
:101F8000F30708F49DC0D901CD91DC911197C617D4
:101F9000D70798F0C530D10530F3CE0104978617E6
:101FA000970708F3C61BD70B2297C193D1936D9364
:101FB0007C93CF010E941D0FD6CF5B01AC1ABD0AE6
:101FC0004C018C0E9D1EA0915F02B0916002512CBD
:101FD000412CF12CE12C109731F580915D0290910C
:101FE0005E028815990509F05CC04616570608F090
:101FF00058C08091020190910301009741F48DB780
:102000009EB74091060150910701841B950BE8177C
:10201000F90708F055C0F0935E02E0935D02F90104
:1020200071836083A0CF8D919C91119712966C90D3
:10203000129713967C901397A815B90559F56C0162
:1020400042E0C40ED11CCA14DB0420F1AC014A19D1
:102050005B09DA011296159780F0628273825183D0
:102060004083D9016D937C93E114F10471F0D701A1
:102070001396FC93EE93129776CF22968C0F9D1FAA
:10208000F90191838083F301EFCFF0936002E09335
:102090005F0269CF4816590608F42C017D01D3016F
:1020A0009ACFCB010E94810E7C01009749F0AE01CE
:1020B000B8010E946310C8010E941D0F870153CF11
:1020C00010E000E050CFFB01DC0102C001900D9256
:1020D00041505040D8F70895FB01DC0101900D926A
:0A20E0000020E1F70895F894FFCF07
:1020EA000100000061028000000000004201A2001D
:1020FA00CF008F010001DE00F200000000005A0349
:10210A00A3020D0A004D6F64653A00426567696E65
:10211A00536574757000456E645365747570005626
:10212A00616C75652000204C6566744D2056616CA3
:0A213A003A2000204469723A2000A8
:00000001FF
