:100000000C9462000C948A000C948A000C948A0070
:100010000C948A000C948A000C948A000C948A0038
:100020000C948A000C948A000C948A000C948A0028
:100030000C948A000C948A000C948A000C948A0018
:100040000C946C040C948A000C943A040C941404E0
:100050000C948A000C948A000C948A000C948A00F8
:100060000C948A000C948A000000000024002700F1
:100070002A0000000000250028002B0000000000DE
:1000800023002600290004040404040404040202DA
:100090000202020203030303030301020408102007
:1000A0004080010204081020010204081020000012
:1000B0000008000201000003040700000000000027
:1000C0000000B60411241FBECFEFD8E0DEBFCDBFC5
:1000D00011E0A0E0B1E0E8ECF7E102C005900D927C
:1000E000A032B107D9F722E0A0E2B1E001C01D9231
:1000F000A332B207E1F710E0C2E6D0E004C02197D6
:10010000FE010E94B70AC136D107C9F70E949105C6
:100110000C94E20B0C94000010922A011092290119
:10012000ECEEF1E0128211828FEF93E094838383EF
:1001300010861782968385830895AF92BF92CF92DF
:10014000DF92EF92FF920F931F93CF93DF936C0197
:100150007B018B01040F151FEB015E01AE18BF0878
:10016000C017D10759F06991D601ED91FC9101902A
:10017000F081E02DC6010995892B79F7C501DF9142
:10018000CF911F910F91FF90EF90DF90CF90BF9094
:10019000AF900895FC01538D448D252F30E0842FBE
:1001A00090E0821B930B541710F0CF96089501979F
:1001B0000895FC01918D828D981761F0A28DAE0F8C
:1001C000BF2FB11D5D968C91928D9F5F9F73928F13
:1001D00090E008958FEF9FEF0895FC01918D828D3F
:1001E000981731F0828DE80FF11D858D90E008950C
:1001F0008FEF9FEF0895FC01918D228D892F90E064
:10020000805C9F4F821B91098F73992708958BE221
:1002100091E00E94FB0021E0892B09F420E0822F6D
:10022000089580E090E0892B29F00E940701811158
:100230000C9400000895FC01A48DA80FB92FB11DE6
:10024000A35ABF4F2C91848D90E001968F7399270C
:10025000848FA689B7892C93A089B1898C918370EA
:1002600080648C93938D848D981306C00288F389E3
:10027000E02D80818F7D80830895EF92FF920F9310
:100280001F93CF93DF93EC0181E0888F9B8D8C8D42
:1002900098131AC0E889F989808185FF15C09FB736
:1002A000F894EE89FF896083E889F98980818370F9
:1002B000806480839FBF81E090E0DF91CF911F91A8
:1002C0000F91FF90EF900895F62E0B8D10E00F5FC9
:1002D0001F4F0F731127E02E8C8D8E110CC00FB69F
:1002E00007FCFACFE889F989808185FFF5CFCE0137
:1002F0000E941B01F1CFEB8DEC0FFD2FF11DE35A96
:10030000FF4FF0829FB7F8940B8FEA89FB898081B9
:100310008062CFCFCF93DF93EC01888D8823B9F033
:10032000AA89BB89E889F9898C9185FD03C0808100
:1003300086FD0DC00FB607FCF7CF8C9185FFF2CF7D
:10034000808185FFEDCFCE010E941B01E9CFDF91B7
:10035000CF910895833081F028F4813099F0823074
:10036000A9F008958730A9F08830C9F08430B1F43D
:10037000809180008F7D03C0809180008F77809373
:100380008000089584B58F7784BD089584B58F7DEE
:10039000FBCF8091B0008F778093B000089580915B
:1003A000B0008F7DF9CF1F93CF93DF93282F30E0DC
:1003B000F901E255FF4F8491F901E656FF4FD491C0
:1003C000F901EA57FF4FC491CC23A9F0162F8111F0
:1003D0000E94AA01EC2FF0E0EE0FFF1FEE58FF4F36
:1003E000A591B4918FB7F894EC91111108C0D095F4
:1003F000DE23DC938FBFDF91CF911F910895DE2B19
:10040000F8CFCF93DF9390E0FC01E656FF4F2491A5
:100410008A579F4FFC0184918823D1F090E0880F88
:10042000991FFC01E859FF4FA591B491FC01EE58CA
:10043000FF4FC591D491623071F49FB7F8943C910D
:10044000822F809583238C93E8812E2B28839FBF56
:10045000DF91CF9108958FB7F894EC912E2B2C93C8
:100460008FBFF6CF8E3008F08E50877080648093F7
:100470007C0080917A00806480937A0080917A0079
:1004800086FDFCCF809178009091790008953FB768
:10049000F8948091250190912601A0912701B091B7
:1004A000280126B5A89B05C02F3F19F00196A11D74
:1004B000B11D3FBFBA2FA92F982F8827BC01CD01AE
:1004C000620F711D811D911D42E0660F771F881F0D
:1004D000991F4A95D1F70895CF93DF93EC0161E01E
:1004E00088810E94010261E089810E94010261E02D
:1004F0008A81DF91CF910C9401022F923F924F920B
:100500005F926F927F928F929F92AF92BF92CF92A3
:10051000DF92EF92FF920F931F93CF93DF93CDB7AC
:10052000DEB72A970FB6F894DEBF0FBECDBF1C0111
:100530006A017B01DC011E968D909D90AD90BC9070
:100540005197C901B8010E947B092B013C01D101DF
:100550001A968D919D910D90BC91A02D89839A83BF
:10056000AB83BC83BC01CD019058A30192010E94D2
:100570002B0A0E9443097A876987A5019401C70164
:10058000B6010E945F08A30192010E94D1080E9457
:1005900043096D837E838F8398870D811E81E98552
:1005A000FA850E171F078CF029813A814B815C81F7
:1005B000C301B2010E942B0A0E9443097A8769870E
:1005C0000617170714F41A870987A985BA85BD018C
:1005D000BB0F880B990B0E947B09A50194010E9417
:1005E00060082B013C01A7019601C501B4010E94DE
:1005F000CC08881F8827881F8983A7019601C3011B
:10060000B2010E94CC08881F8827881FB981B817BB
:1006100019F1F101C686D786E08AF18AF101668573
:100620007785808991892A960FB6F894DEBF0FBE30
:10063000CDBFDF91CF911F910F91FF90EF90DF9091
:10064000CF90BF90AF909F908F907F906F905F9072
:100650004F903F902F900895D1011E964D925D923C
:100660006D927C925197DACF8F929F92AF92BF9208
:10067000CF92DF92EF92FF920F931F932FB7F894D0
:10068000C0902101D0902201E0902301F09024013C
:100690002FBFDC0116960D911D912D913C9119975C
:1006A00046015701801A910AA20AB30A95018401F2
:1006B0001696CD92DD92ED92FC921997ED91FC91F8
:1006C0000280F381E02D09951F910F91FF90EF902B
:1006D000DF90CF90BF90AF909F908F900895EF9252
:1006E000FF920F931F93CF93DF93EC018B0160E098
:1006F00001151105B1F489810E94D30160E0888160
:100700000E94D301CA8161E08C2F0E94010260E047
:100710008C2FDF91CF911F910F91FF90EF900C9450
:10072000D301101611065CF589810E94D30161E0A6
:1007300088810E94D301980117FF03C0319521954C
:100740003109AB81BC810E94A80A2FEF30E040E064
:1007500050E00E940408122F032FE22EF32EFE8297
:10076000ED82CA8161E08C2F0E940102E114F10444
:1007700071F28FEFE816F10441F461E0C9CF88818E
:100780000E94D30161E08981D4CFEC2FF0E0E255E3
:10079000FF4FE491E33061F148F4E130C9F0E23019
:1007A00011F180E8E816F10444F7B1CFE73061F1C8
:1007B000E83091F1E430A9F7809180008062809365
:1007C0008000812F902F90938B0080938A0004C02B
:1007D00084B5806884BD17BDDF91CF911F910F91C3
:1007E000FF90EF90089584B5806284BD18BDF4CF6A
:1007F00080918000806880938000812F902F90935B
:10080000890080938800E8CF8091B0008068809351
:10081000B0001093B300E0CF8091B000806280936D
:10082000B0001093B400D8CF1F920F920FB60F9262
:1008300011242F933F934F935F936F937F938F93E5
:100840009F93AF93BF93EF93FF938BE291E00E944E
:100850001B01FF91EF91BF91AF919F918F917F917C
:100860006F915F914F913F912F910F900FBE0F901D
:100870001F9018951F920F920FB60F9211242F936D
:100880008F939F93EF93FF93E0913B01F0913C0195
:100890008081E0914101F091420182FD1BC0908175
:1008A000809144018F5F8F7320914501821741F041
:1008B000E0914401F0E0E55DFE4F958F80934401A7
:1008C000FF91EF919F918F912F910F900FBE0F90FD
:1008D0001F9018958081F4CF1F920F920FB60F9240
:1008E00011242F933F938F939F93AF93BF93809146
:1008F000210190912201A0912301B0912401309116
:10090000200123E0230F2D3758F50196A11DB11DBD
:10091000209320018093210190932201A093230131
:10092000B09324018091250190912601A091270187
:10093000B09128010196A11DB11D809325019093CE
:100940002601A0932701B0932801BF91AF919F91F9
:100950008F913F912F910F900FBE0F901F90189580
:1009600026E8230F0296A11DB11DD2CF8F929F9230
:10097000AF92BF92CF92DF92EF92FF92CF93DF932D
:10098000EBE2F1E01382128288EE93E0A0E0B0E0A7
:1009900084839583A683B7838AE091E091838083E3
:1009A00085EC90E09587848784EC90E09787868734
:1009B00080EC90E0918B808B81EC90E0938B828B2C
:1009C00082EC90E0958B848B86EC90E0978B868B05
:1009D000118E128E138E148EE7E0F2E0168288ECF0
:1009E00090E092878187138681E090E095878487E5
:1009F00097878687108A118A128A138A148A158A21
:100A0000168A178A8CE890E091838083158214827D
:100A10001382128287E090E090878783E0E0F2E023
:100A20008DE080838CE081838BE082838FEF90E088
:100A300094838383E9EFF1E028E0208329E0218398
:100A40002AE022839483838382E190E00E94BD0A9E
:100A5000FC01C12CD12C80E8E82E8FE3F82EC28255
:100A6000D382E482F582CCE1D1E0D183C083812CB2
:100A7000912C90E2A92E91E4B92E82869386A486C9
:100A8000B586F093F801E093F70182E190E00E94CF
:100A9000BD0AFC01C282D382E482F582D183C08385
:100AA00082869386A486B5869093F6018093F5019D
:100AB000ECEEF1E0128211828FEF93E09483838356
:100AC00096838583108617828EE08083E8ECF1E0C0
:100AD000108A118A128A138A80E197E2A0E0B0E0BE
:100AE000848B958BA68BB78B118E108E10A211A2C2
:100AF00012A213A2C482D582E682F78210861186E2
:100B0000128613861486158616861786DF91CF9176
:100B1000FF90EF90DF90CF90BF90AF909F908F901D
:100B20000895CF93DF93CDB7DEB72C970FB6F89427
:100B3000DEBF0FBECDBF789484B5826084BD84B51E
:100B4000816084BD85B5826085BD85B5816085BDC8
:100B500080916E00816080936E0010928100809180
:100B60008100826080938100809181008160809308
:100B70008100809180008160809380008091B1002D
:100B800084608093B1008091B00081608093B00058
:100B900080917A00846080937A0080917A008260EC
:100BA00080937A0080917A00816080937A008091AE
:100BB0007A00806880937A001092C10062E0809190
:100BC0000E020E94010280E092E00E946C0289EF16
:100BD00091E00E946C02E0913B01F0913C0182E0C7
:100BE0008083E0913701F09138011082E091390162
:100BF000F0913A018FEC808310924301E0913F0124
:100C0000F091400186E08083E0913D01F0913E014A
:100C1000808180618083E0913D01F0913E0180817F
:100C200088608083E0913D01F0913E018081806881
:100C30008083E0913D01F0913E0180818F7D808332
:100C400090E0292E90E0392E20910E0230910F0273
:100C50003327F901E255FF4F8491F901E656FF4F22
:100C60001491F901EA57FF4F0491002309F47FC161
:100C700081110E94AA01E02FF0E0EE0FFF1FE4585F
:100C8000FF4FA591B491EC911E2391E080E009F40F
:100C900090E0092F182F80911202882309F46AC16D
:100CA0000E94470200911702109118022091190228
:100CB00030911A026B017C01C01AD10AE20AF30AD0
:100CC00097018601609317027093180280931902AE
:100CD00090931A028091100290911102092E000C3B
:100CE000AA0BBB0B80179107A207B30710F4109251
:100CF00012028091130290911402892B09F059C1BC
:100D0000E0910B02F0910C02309709F00995809167
:100D10000D0281110BC0EE24E394E0920D02E091EC
:100D20000702F0910802309709F009958091290196
:100D300090912A018130910509F047C18091EC0121
:100D40000E943202C090EF01D090F0018090ED013E
:100D50009090EE017401881599052CF07C01C8165D
:100D6000D9060CF47601092C000CAA08BB080E94D5
:100D700047024090E8015090E9016090EA017090CC
:100D8000EB019701FF0C440B550B281939094A094F
:100D90005B09AFEFB3E00E9423080D2C000CEE08B6
:100DA000FF08A7019601281939094A095B090E9421
:100DB00004080091E0011091E101021B130B4801AE
:100DC000012E000CAA08BB08C090D001D090D10120
:100DD000E090D201F090D301C982DA82EB82FC82EA
:100DE0008091E2019091E3016C01990FEE08FF08F8
:100DF000CD82DE82EF82F886C701B601680D791DCB
:100E00008A1D9B1D22E030E040E050E00E94040873
:100E1000C301B2010E94980AC090E401D090E5019C
:100E2000E090E601F090E701C60ED71EE81EF91E1D
:100E3000C092E401D092E501E092E601F092E70170
:100E4000C501B4010E947B0929813A814B815C81F3
:100E50000E942B0A20E030E0A9010E9460080E9455
:100E600043090E947B0969877A878B879C87C70122
:100E7000B6010E947B0929813A814B815C810E94E5
:100E80002B0A9B01AC0169857A858B859C850E9424
:100E900060086B017C01C501B4012D813E814F8149
:100EA0005885621B730B840B950BA30192010E9462
:100EB0002E08CA01B9010E947B092091D40130910A
:100EC000D5014091D6015091D7010E942B0A4B01C8
:100ED0005C01C701B6010E9443090E947B099B0186
:100EE000AC01C501B4010E9460081093E3010093B6
:100EF000E2010E9443096093C8017093C901809385
:100F0000CA019093CB018091F7019091F801DC0127
:100F1000ED91FC910190F081E02D40E050E0BA01AC
:100F200009950E94430980E092E00E946F0380913E
:100F3000F5019091F601DC01ED91FC910190F081B9
:100F4000E02D40E050E0BA0109950E94430989EF85
:100F500091E00E946F032114310409F475CE0E94C0
:100F60000701882309F470CE0E9400006DCE10E0C6
:100F700000E091CE809115029091160280179107A2
:100F800009F4B7CE0E9447026093170270931802CB
:100F90008093190290931A02DD24D394D092120206
:100FA000109316020093150210931402009313027B
:100FB000A0CE80910D02882309F4B8CE10920D02C4
:100FC000E0910902F0910A02AECE892B21F68091C0
:100FD000EC010E9432022091F1013091F20182175E
:100FE00093072CF49093F2018093F101B4CF2091F8
:100FF000F3013091F401281739070CF0ACCF90932E
:10100000F4018093F301A7CF052E97FB1EF4009403
:101010000E941B0857FD07D00E942E0807FC03D032
:101020004EF40C941B0850954095309521953F4FF8
:101030004F4F5F4F089590958095709561957F4FC4
:101040008F4F9F4F08950E945008A59F900DB49F09
:10105000900DA49F800D911D11240895A1E21A2ED8
:10106000AA1BBB1BFD010DC0AA1FBB1FEE1FFF1F4C
:10107000A217B307E407F50720F0A21BB30BE40B9C
:10108000F50B661F771F881F991F1A9469F76095E3
:101090007095809590959B01AC01BD01CF0108959D
:1010A000A29FB001B39FC001A39F700D811D1124A9
:1010B000911DB29F700D811D1124911D08955058EE
:1010C000BB27AA270E9477080C94F1090E94E30924
:1010D00038F00E94EA0920F039F49F3F19F426F411
:1010E0000C94E0090EF4E095E7FB0C94DA09E92F83
:1010F0000E94020A58F3BA1762077307840795071C
:1011000020F079F4A6F50C94240A0EF4E0950B2E49
:10111000BA2FA02D0B01B90190010C01CA01A00149
:101120001124FF27591B99F0593F50F4503E68F1A4
:101130001A16F040A22F232F342F4427585FF3CFE5
:10114000469537952795A795F0405395C9F77EF4B6
:101150001F16BA0B620B730B840BBAF09150A1F0FF
:10116000FF0FBB1F661F771F881FC2F70EC0BA0F85
:10117000621F731F841F48F4879577956795B7950D
:10118000F7959E3F08F0B0CF9395880F08F0992708
:10119000EE0F9795879508950E94B60908F481E0AF
:1011A00008950E94E5080C94F1090E94EA0958F09C
:1011B0000E94E30940F029F45F3F29F00C94DA091A
:1011C00051110C94250A0C94E0090E94020A68F35C
:1011D0009923B1F3552391F3951B550BBB27AA27F0
:1011E00062177307840738F09F5F5F4F220F331F2A
:1011F000441FAA1FA9F335D00E2E3AF0E0E832D0F2
:1012000091505040E695001CCAF72BD0FE2F29D0F4
:10121000660F771F881FBB1F261737074807AB07C6
:10122000B0E809F0BB0B802DBF01FF2793585F4F3B
:101230003AF09E3F510578F00C94DA090C94250A97
:101240005F3FE4F3983ED4F3869577956795B7951D
:10125000F7959F5FC9F7880F911D9695879597F928
:101260000895E1E0660F771F881FBB1F62177307A1
:101270008407BA0720F0621B730B840BBA0BEE1FB6
:1012800088F7E09508950E944A096894B1110C947A
:10129000250A08950E940A0A88F09F5798F0B92FEE
:1012A0009927B751B0F0E1F0660F771F881F991F9B
:1012B0001AF0BA95C9F714C0B13091F00E94240A0F
:1012C000B1E008950C94240A672F782F8827B85F1F
:1012D00039F0B93FCCF3869577956795B395D9F7F3
:1012E0003EF490958095709561957F4F8F4F9F4FFD
:1012F0000895E89409C097FB3EF490958095709509
:1013000061957F4F8F4F9F4F9923A9F0F92F96E951
:10131000BB279395F695879577956795B795F111C6
:10132000F8CFFAF4BB0F11F460FF1BC06F5F7F4F63
:101330008F4F9F4F16C0882311F096E911C0772375
:1013400021F09EE8872F762F05C0662371F096E87E
:10135000862F70E060E02AF09A95660F771F881F4D
:10136000DAF7880F9695879597F90895990F0008F1
:10137000550FAA0BE0E8FEEF16161706E807F90767
:10138000C0F012161306E407F50798F0621B730B02
:10139000840B950B39F40A2661F0232B242B252B83
:1013A00021F408950A2609F4A140A6958FEF811D26
:1013B000811D089597F99F6780E870E060E00895C7
:1013C0009FEF80EC089500240A941616170618065D
:1013D0000906089500240A94121613061406050639
:1013E0000895092E0394000C11F4882352F0BB0FCA
:1013F00040F4BF2B11F460FF04C06F5F7F4F8F4F2D
:101400009F4F089557FD9058440F551F59F05F3F67
:1014100071F04795880F97FB991F61F09F3F79F016
:1014200087950895121613061406551FF2CF469598
:10143000F1DF08C0161617061806991FF1CF86951A
:101440007105610508940895E894BB2766277727FE
:10145000CB0197F908950E943E0A0C94F1090E946D
:10146000E30938F00E94EA0920F0952311F00C946A
:10147000DA090C94E00911240C94250A0E94020A4E
:1014800070F3959FC1F3950F50E0551F629FF001D7
:10149000729FBB27F00DB11D639FAA27F00DB11DF0
:1014A000AA1F649F6627B00DA11D661F829F222779
:1014B000B00DA11D621F739FB00DA11D621F839F00
:1014C000A00D611D221F749F3327A00D611D231FD6
:1014D000849F600D211D822F762F6A2F11249F5724
:1014E00050409AF0F1F088234AF0EE0FFF1FBB1F27
:1014F000661F771F881F91505040A9F79E3F5105E6
:1015000080F00C94DA090C94250A5F3FE4F3983ECE
:10151000D4F3869577956795B795F795E7959F5F8F
:10152000C1F7FE2B880F911D9695879597F9089521
:10153000DB018F939F930E942308BF91AF91A29FDD
:10154000800D911DA39F900DB29F900D11240895C1
:101550000E945008332312F48A1B9B0B0C94B20A8E
:101560000E945008B7FF0895821B930B0895EE0F59
:10157000FF1F0590F491E02D09940F931F93CF93D3
:10158000DF938230910510F482E090E0E091210237
:10159000F091220230E020E0B0E0A0E0309799F432
:1015A0002115310509F44AC0281B390B24303105B7
:1015B000D8F58A819B816115710589F1FB019383BF
:1015C0008283FE0111C0408151810281138148173D
:1015D0005907E0F04817590799F4109761F01296EF
:1015E0000C93129713961C933296CF01DF91CF91F3
:1015F0001F910F9108950093210210932202F4CFBE
:101600002115310551F04217530738F0A901DB01CC
:101610009A01BD01DF01F801C1CFEF01F9CF90932D
:10162000220280932102CDCFFE01E20FF31F8193AE
:1016300091932250310939832883D7CF20911F02FB
:1016400030912002232B41F42091020130910301BB
:101650003093200220931F0220910001309101015C
:101660002115310541F42DB73EB740910401509149
:101670000501241B350BE0911F02F0912002E217B7
:10168000F307A0F42E1B3F0B2817390778F0AC01A5
:101690004E5F5F4F2417350748F04E0F5F1F509382
:1016A000200240931F02819391939FCFF0E0E0E0EE
:1016B0009CCFCF93DF930097E9F0FC013297138220
:1016C0001282A0912102B0912202ED0130E020E0CF
:1016D0001097A1F420813181820F931F20911F0266
:1016E000309120022817390709F061C0F0932002D9
:1016F000E0931F02DF91CF910895EA01CE17DF0733
:10170000E8F54A815B819E0141155105B1F7E90178
:10171000FB83EA8349915991C40FD51FEC17FD074C
:1017200061F4808191810296840F951FE90199836C
:101730008883828193819B838A83F0E0E0E0129624
:101740008D919C9113970097B9F52D913C9111972C
:10175000CD010296820F931F20911F02309120022B
:101760002817390739F6309751F510922202109256
:101770002102B0932002A0931F02BCCFD383C28367
:1017800040815181840F951FC817D90761F44E5FBE
:101790005F4F88819981480F591F518340838A8107
:1017A0009B81938382832115310509F0B0CFF0939B
:1017B0002202E09321029ECFFD01DC01C0CF138203
:0817C0001282D7CFF894FFCF8D
:1017C800000023028000000000003D019D00CA00C7
:1017D8008A01FB00D900ED000000000034037D02FF
:00000001FF
