:100000000C9462000C947F000C947F000C947F0091
:100010000C947F000C947F000C947F000C947F0064
:100020000C947F000C947F000C947F000C947F0054
:100030000C947F000C947F000C947F000C947F0044
:100040000C9484020C947F000C947F000C947F002D
:100050000C947F000C947F000C947F000C947F0024
:100060000C947F000C947F00000000002300260009
:10007000290000000008000201000003040700003E
:1000800000000000000000000000250028002B00F8
:1000900000000000240027002A00040404040404D3
:1000A0000404020202020202030303030303010227
:1000B00004081020408001020408102001020408F6
:1000C00010203A0311241FBECFEFD8E0DEBFCDBF12
:1000D00021E0A0E0B1E001C01D92A335B207E1F735
:1000E00010E0C2E6D0E004C02197FE010E949E030A
:1000F000C136D107C9F70E94CE020C94A4030C9418
:10010000000090E0FC01E255FF4F249186569F4F7E
:10011000FC018491882399F090E0880F991FFC01DD
:10012000E057FF4FA591B491FC01EA57FF4F85912D
:1001300094918FB7F894EC91E22BEC938FBF0895D4
:10014000833081F028F4813099F08230A9F008954D
:100150008730A9F08830C9F08430B1F480918000F4
:100160008F7D03C0809180008F77809380000895F9
:1001700084B58F7784BD089584B58F7DFBCF809142
:10018000B0008F778093B00008958091B0008F7D8C
:10019000F9CFCF93DF93282F30E0F901EE58FF4FCE
:1001A0008491F901E255FF4FD491F901E656FF4FD2
:1001B000C491CC23A1F081110E94A000EC2FF0E0AB
:1001C000EE0FFF1FE859FF4FA591B491EC91ED237D
:1001D00081E090E009F480E0DF91CF91089580E024
:1001E00090E0FACF1F93CF93DF93282F30E0F901EF
:1001F000EE58FF4F8491F901E255FF4FD491F90178
:10020000E656FF4FC491CC23A9F0162F81110E940E
:10021000A000EC2FF0E0EE0FFF1FEA57FF4FA59173
:10022000B4918FB7F894EC91111108C0D095DE23EA
:10023000DC938FBFDF91CF911F910895DE2BF8CF14
:100240003FB7F8948091050190910601A0910701B4
:10025000B091080126B5A89B05C02F3F19F0019663
:10026000A11DB11D3FBFBA2FA92F982F8827BC0110
:10027000CD01620F711D811D911D42E0660F771F38
:10028000881F991F4A95D1F70895CF93DF93EC010A
:1002900088850E94810089850E9481008A85DF917E
:1002A000CF910C94810008950895CF92DF92EF9240
:1002B000FF920F931F93CF93DF93EC018B018B85FC
:1002C000882339F10E9420010E851F8528893989EC
:1002D0006B017C01C01AD10AE20AF30A9701860178
:1002E0006E877F87888B998B89859A85092E000C6C
:1002F000AA0BBB0B80179107A207B30708F41B8654
:10030000DF91CF911F910F91FF90EF90DF90CF90F1
:1003100008958C859D858617970791F30E9420018B
:100320006E877F87888B998B81E08B871D870C87F1
:10033000012BB9F4EC81FD81309709F009958E818C
:100340008111DECF81E08E83E881F9813097C1F29F
:10035000DF91CF911F910F91FF90EF90DF90CF90A1
:1003600009948E81882361F21E82EA81FB81EECF9F
:10037000EF92FF920F931F93CF93DF93EC012FB770
:10038000F8948091010190910201A0910301B09134
:1003900004012FBF88839983AA83BB836E817F81E9
:1003A0002C813D81CB01821B930B09F487C0EFEFB9
:1003B000FFEF1816190614F4E1E0F0E0AB85BC85F8
:1003C000EA9FA001EB9F500DFA9F500D1124FA01F6
:1003D00057FF04C0EE27FF27E41BF50B97FF03C070
:1003E0009195819591098E179F07ECF47D836C831D
:1003F000EC80FD8060E0E114F104D1F489850E9475
:10040000F20060E088850E94F200CA858C2F0E946D
:10041000810060E08C2FDF91CF911F910F91FF90B1
:10042000EF900C94F200240F351F3D832C83E0CF16
:100430001E141F04CCF489850E94F20061E08885B7
:100440000E94F2000D851E85E016F1060CF487016E
:10045000CA858C2F0E94810001151105D1F20F3F32
:10046000110541F461E0D6CF88850E94F20061E079
:100470008985E6CFEC2FF0E0EE58FF4FE491E330B2
:1004800049F140F4E130B1F0E230F9F00038110503
:100490004CF7BFCFE73041F1E83071F1E430B1F70C
:1004A0008091800080628093800010938B00009385
:1004B0008A0004C084B5806884BD07BDDF91CF91F8
:1004C0001F910F91FF90EF90089584B5806284BDD5
:1004D00008BDF4CF809180008068809380001093E5
:1004E000890000938800EACF8091B00080688093F3
:1004F000B0000093B300E2CF8091B000806280939F
:10050000B0000093B400DACF1F920F920FB60F9293
:1005100011242F933F938F939F93AF93BF93809119
:10052000010190910201A0910301B0910401309169
:10053000000123E0230F2D3758F50196A11DB11DB1
:10054000209300018093010190930201A093030185
:10055000B09304018091050190910601A0910701DB
:10056000B09108010196A11DB11D809305019093E2
:100570000601A0930701B0930801BF91AF919F912D
:100580008F913F912F910F900FBE0F901F90189554
:1005900026E8230F0296A11DB11DD2CF789484B511
:1005A000826084BD84B5816084BD85B5826085BD6F
:1005B00085B5816085BD80916E00816080936E00FD
:1005C00010928100809181008260809381008091EF
:1005D00081008160809381008091800081608093A0
:1005E00080008091B10084608093B1008091B00060
:1005F00081608093B00080917A00846080937A005B
:1006000080917A00826080937A0080917A00816084
:1006100080937A0080917A00806880937A001092AB
:10062000C10084E491E00E94450185E391E00E94CD
:100630004501C0E0D0E084E491E00E94B80185E388
:1006400091E00E94B801809126010E94C900BC017E
:100650008FE191E00E945501809110010E94C90034
:10066000BC0189E091E00E945501209721F30E948E
:100670000000E1CFE4E4F1E01082118212821382E3
:100680001582148217821682108681E0818782E0AB
:10069000828788EC90E0948783872FEF30E036875D
:1006A0002587E5E3F1E01082118212821382158220
:1006B00014821782168244E0408745E0418746E075
:1006C00042879487838736872587EFE1F1E016829A
:1006D00092878187138641E050E0558744871686CC
:1006E0001786108A118A128A138A148A158A24E5B9
:1006F00031E031832083158214821382128222E03A
:1007000030E030872783E9E0F1E016829287818725
:1007100013865587448716861786108A118A128A8F
:10072000138A148A158A83E591E091838083158268
:10073000148213821282308727830895EE0FFF1FE1
:0C0740000590F491E02D0994F894FFCF8F
:00000001FF
