:020000040000FA
:100000000C9462000C948A000C948A000C948A0070
:100010000C948A000C948A000C948A000C948A0038
:100020000C948A000C948A000C948A000C948A0028
:100030000C948A000C948A000C948A000C948A0018
:100040000C9461060C948A000C942F060C940906FB
:100050000C948A000C948A000C948A000C948A00F8
:100060000C948A000C948A000000000024002700F1
:100070002A0000000000250028002B0000000000DE
:1000800023002600290004040404040404040202DA
:100090000202020203030303030301020408102007
:1000A0004080010204081020010204081020000012
:1000B0000008000201000003040700000000000027
:1000C0000000AB0611241FBECFEFD8E0DEBFCDBFCE
:1000D00011E0A0E0B1E0E8EBFFE102C005900D9275
:1000E000AE36B107D9F722E0AEE6B1E001C01D920D
:1000F000A537B207E1F710E0C2E6D0E004C02197CF
:10010000FE010E94E20DC136D107C9F70E94920795
:100110000C94DA0F0C940000AF92BF92CF92DF9252
:10012000EF92FF920F931F93CF93DF936C017B01AC
:100130008B01040F151FEB015E01AE18BF08C0173D
:10014000D10759F06991D601ED91FC910190F081B0
:10015000E02DC6010995892B79F7C501DF91CF9173
:100160001F910F91FF90EF90DF90CF90BF90AF90D5
:100170000895FC01538D448D252F30E0842F90E0AD
:10018000821B930B541710F0CF9608950197089592
:10019000FC01918D828D981761F0A28DAE0FBF2F5B
:1001A000B11D5D968C91928D9F5F9F73928F90E0B1
:1001B00008958FEF9FEF0895FC01918D828D981720
:1001C00031F0828DE80FF11D858D90E008958FEF5D
:1001D0009FEF0895FC01918D228D892F90E0805C26
:1001E0009F4F821B91098F73992708958DE791E0A6
:1001F0000E94EA0021E0892B09F420E0822F089573
:1002000080E090E0892B29F00E94F60081110C9487
:1002100000000895FC01A48DA80FB92FB11DA35AA9
:10022000BF4F2C91848D90E001968F739927848F16
:10023000A689B7892C93A089B1898C918370806439
:100240008C93938D848D981306C00288F389E02DDA
:1002500080818F7D80830895EF92FF920F931F938B
:10026000CF93DF93EC0181E0888F9B8D8C8D981369
:100270001AC0E889F989808185FF15C09FB7F89475
:10028000EE89FF896083E889F989808183708064C1
:1002900080839FBF81E090E0DF91CF911F910F910C
:1002A000FF90EF900895F62E0B8D10E00F5F1F4F1B
:1002B0000F731127E02E8C8D8E110CC00FB607FC2A
:1002C000FACFE889F989808185FFF5CFCE010E94B8
:1002D0000A01F1CFEB8DEC0FFD2FF11DE35AFF4F1B
:1002E000F0829FB7F8940B8FEA89FB898081806246
:1002F000CFCFCF93DF93EC01888D8823B9F0AA8903
:10030000BB89E889F9898C9185FD03C0808186FDD0
:100310000DC00FB607FCF7CF8C9185FFF2CF80811F
:1003200085FFEDCFCE010E940A01E9CFDF91CF9189
:100330000895833081F028F4813099F08230A9F05B
:1003400008958730A9F08830C9F08430B1F48091E5
:1003500080008F7D03C0809180008F778093800024
:10036000089584B58F7784BD089584B58F7DFBCFC4
:100370008091B0008F778093B00008958091B00095
:100380008F7DF9CF1F93CF93DF93282F30E0F901B2
:10039000E255FF4F8491F901E656FF4FD491F901E0
:1003A000EA57FF4FC491CC23A9F0162F81110E9468
:1003B0009901EC2FF0E0EE0FFF1FEE58FF4FA591D3
:1003C000B4918FB7F894EC91111108C0D095DE2349
:1003D000DC938FBFDF91CF911F910895DE2BF8CF73
:1003E000CF93DF9390E0FC01E656FF4F24918A57AC
:1003F0009F4FFC0184918823D1F090E0880F991FD2
:10040000FC01E859FF4FA591B491FC01EE58FF4F54
:10041000C591D491623071F49FB7F8943C91822FCA
:10042000809583238C93E8812E2B28839FBFDF91B7
:10043000CF9108958FB7F894EC912E2B2C938FBF0A
:10044000F6CF8E3008F08E508770806480937C00E9
:1004500080917A00806480937A0080917A0086FD92
:10046000FCCF809178009091790008953FB7F8947F
:100470008091730190917401A0917501B091760102
:1004800026B5A89B05C02F3F19F00196A11DB11DEF
:100490003FBFBA2FA92F982F8827BC01CD01620F2B
:1004A000711D811D911D42E0660F771F881F991FE6
:1004B0004A95D1F708958F929F92AF92BF92CF92B3
:1004C000DF92EF92FF924B015C010E9436026B01BA
:1004D0007C010E9436026C197D098E099F09683ED5
:1004E000734081059105A8F321E0821A9108A108C3
:1004F000B10888EEC80E83E0D81EE11CF11C8114FF
:100500009104A104B10429F7FF90EF90DF90CF9000
:10051000BF90AF909F908F9008952F923F924F92EF
:100520005F926F927F928F929F92AF92BF92CF9283
:10053000DF92EF92FF920F931F93CF93DF93CDB78C
:10054000DEB72A970FB6F894DEBF0FBECDBF1C01F1
:100550006A017B01DC011E968D909D90AD90BC9050
:100560005197C901B8010E940F0B2B013C01D10129
:100570001A968D919D910D90BC91A02D89839A839F
:10058000AB83BC83BC01CD019058A30192010E94B2
:100590006E0B0E949D0D7A876987A5019401C701A2
:1005A000B6010E94BE0CA30192010E942B0D0E9475
:1005B0009D0D6D837E838F8398870D811E81E985D4
:1005C000FA850E171F078CF029813A814B815C81D7
:1005D000C301B2010E946E0B0E949D0D7A8769874C
:1005E0000617170714F41A870987A985BA85BD016C
:1005F000BB0F880B990B0E940F0BA50194010E9461
:10060000BF0C2B013C01A7019601C501B4010E945A
:10061000080B881F8827881F8983A7019601C301BB
:10062000B2010E94080B881F8827881FB981B8175C
:1006300019F1F101C686D786E08AF18AF101668553
:100640007785808991892A960FB6F894DEBF0FBE10
:10065000CDBFDF91CF911F910F91FF90EF90DF9071
:10066000CF90BF90AF909F908F907F906F905F9052
:100670004F903F902F900895D1011E964D925D921C
:100680006D927C925197DACF8F929F92AF92BF92E8
:10069000CF92DF92EF92FF920F931F932FB7F894B0
:1006A000C0906F01D0907001E0907101F0907201E4
:1006B0002FBFDC0116960D911D912D913C9119973C
:1006C00046015701801A910AA20AB30A95018401D2
:1006D0001696CD92DD92ED92FC921997ED91FC91D8
:1006E0000280F381E02D09951F910F91FF90EF900B
:1006F000DF90CF90BF90AF909F908F900895FC01B6
:1007000001900020E9F73197AF01481B590BBC015C
:100710008DE791E00C948C00CF93DF93FC01448132
:100720005581608171818DE791E00E948C00EC0120
:1007300082E291E00E947F038C0F9D1FDF91CF9199
:1007400008958F929F92AF92BF92CF92DF92EF92D5
:10075000FF920F931F93CF93DF93CDB7DEB7A1978F
:100760000FB6F894DEBF0FBECDBF6B017C01F7FE64
:1007700041C06DE28DE791E00E942C018C0122279F
:100780003327A9012C193D094E095F0919A2CE0191
:1007900081967C019AE0892E912CA12CB12CCA0162
:1007A000B901A50194010E948D0C605DF70162936F
:1007B0007F01211531054105510589F790E080E061
:1007C000309719F0CF010E947F03800F911FA196EF
:1007D0000FB6F894DEBF0FBECDBFDF91CF911F9152
:1007E0000F91FF90EF90DF90CF90BF90AF909F90D0
:1007F0008F900895AC019B0119A28E010F5D1F4FD0
:100800008AE0C82ED12CE12CF12CCA01B901A70134
:1008100096010E948D0C605DF80162938F01211595
:1008200031054105510589F790E080E0309779F274
:10083000CF010E947F03CBCF8091000190910101F5
:10084000009721F5809143029091440290934002D9
:1008500080933F028091450290914602909342021C
:100860008093410281E090E0909301018093000128
:1008700085E291E00E947F03609100017091010187
:10088000072E000C880B990B0C94A103019781F79C
:1008900010920101109200011092400210923F024A
:1008A0008FEF93E0909342028093410210924602B0
:1008B000109245029093440280934302D9CFEF9265
:1008C000FF920F931F93CF93DF93EC018B0160E0B6
:1008D00001151105B1F489810E94C20160E088818F
:1008E0000E94C201CA8161E08C2F0E94F00160E089
:1008F0008C2FDF91CF911F910F91FF90EF900C946F
:10090000C201101611065CF589810E94C20161E0E6
:1009100088810E94C201980117FF03C0319521957B
:100920003109AB81BC810E94D30D2FEF30E040E054
:1009300050E00E942C0C122F032FE22EF32EFE8289
:10094000ED82CA8161E08C2F0E94F001E114F10474
:1009500071F28FEFE816F10441F461E0C9CF8881AC
:100960000E94C20161E08981D4CFEC2FF0E0E25512
:10097000FF4FE491E33061F148F4E130C9F0E23037
:1009800011F180E8E816F10444F7B1CFE73061F1E6
:10099000E83091F1E430A9F7809180008062809383
:1009A0008000812F902F90938B0080938A0004C049
:1009B00084B5806884BD17BDDF91CF911F910F91E1
:1009C000FF90EF90089584B5806284BD18BDF4CF88
:1009D00080918000806880938000812F902F909379
:1009E000890080938800E8CF8091B0008068809370
:1009F000B0001093B300E0CF8091B000806280938C
:100A0000B0001093B400D8CFCF93DF93EC0161E036
:100A100088810E94F00161E089810E94F00161E01B
:100A20008A810E94F00170E060E0CE01DF91CF91F9
:100A30000C945F040F931F93CF93DF93EC01888195
:100A40009981009759F02A813B812617370730F0AA
:100A500081E0DF91CF911F910F9108958B016F5F1E
:100A60007F4F0E940D0F009759F0998388831B8355
:100A70000A832C813D81232B59F7FC011082E8CF9A
:100A800080E0E7CFEF92FF920F931F93CF93DF9316
:100A90006115710541F480E0DF91CF911F910F91B5
:100AA000FF90EF90089541155105B1F07B01EC01E5
:100AB0000C811D81040F151FB8010E941A0588239F
:100AC00051F3288139818C819D81B701820F931F59
:100AD0000E94D30F1D830C8381E0DECFCF93DF9381
:100AE000EC0188819981009711F00E94840E19828F
:100AF00018821D821C821B821A82DF91CF91089579
:100B0000EF92FF920F931F93CF93DF93EC017B0142
:100B10008A01BA010E941A0581110BC0CE010E9400
:100B20006E05CE01DF91CF911F910F91FF90EF9055
:100B300008951D830C83B701888199810E94D30F8A
:100B4000F0CFEF92FF920F931F93CF93DF93CDB728
:100B5000DEB762970FB6F894DEBF0FBECDBF8C0133
:100B6000CB01F80111821082138212821582148245
:100B70004AE09E012F5F3F4F7901B9010E94D30ADD
:100B8000F70101900020E9F73197AF014E195F0995
:100B9000B701C8010E94800562960FB6F894DEBFC7
:100BA0000FBECDBFDF91CF911F910F91FF90EF90BE
:100BB0000895FC0111821082138212821582148220
:100BC000FB0101900020E9F73197AF01461B570B5D
:100BD0000C948005CF93DF93EC01FB0186179707F8
:100BE00049F0608171816115710541F04481558141
:100BF0000E948005CE01DF91CF9108950E946E057D
:100C0000F9CFFC0180819181009711F00C94840E42
:100C100008951F920F920FB60F9211242F933F93B6
:100C20004F935F936F937F938F939F93AF93BF93F4
:100C3000EF93FF938DE791E00E940A01FF91EF91FE
:100C4000BF91AF919F918F917F916F915F914F91E4
:100C50003F912F910F900FBE0F901F9018951F92EC
:100C60000F920FB60F9211242F938F939F93EF93B0
:100C7000FF93E0918D01F0918E018081E0919301CD
:100C8000F091940182FD1BC09081809196018F5F4D
:100C90008F7320919701821741F0E0919601F0E067
:100CA000E358FE4F958F80939601FF91EF919F91AE
:100CB0008F912F910F900FBE0F901F9018958081EC
:100CC000F4CF1F920F920FB60F9211242F933F93E0
:100CD0008F939F93AF93BF9380916F019091700119
:100CE000A0917101B091720130916E0123E0230F48
:100CF0002D3758F50196A11DB11D20936E018093EB
:100D00006F0190937001A0937101B0937201809173
:100D1000730190917401A0917501B09176010196D3
:100D2000A11DB11D8093730190937401A09375016F
:100D3000B0937601BF91AF919F918F913F912F9189
:100D40000F900FBE0F901F90189526E8230F029664
:100D5000A11DB11DD2CF8F929F92AF92BF92CF9221
:100D6000DF92EF92FF92CF93DF93EDE7F1E01382F2
:100D7000128288EE93E0A0E0B0E084839583A6839E
:100D8000B7838CE091E09183808385EC90E0958738
:100D9000848784EC90E09787868780EC90E0918B45
:100DA000808B81EC90E0938B828B82EC90E0958B32
:100DB000848B86EC90E0978B868B118E128E138E2F
:100DC000148EE9E5F2E01682138681E090E09587C3
:100DD000848797878687108A118A128A138A148AD1
:100DE000158A168A178A8CE194E091838083158294
:100DF00014821382128287E090E09087878388ECC8
:100E000090E092878187E2E5F2E08DE080838CE0DC
:100E100081838BE082838FEF90E094838383EBE484
:100E2000F2E028E0208329E021832AE022839483D2
:100E3000838382E190E00E94E80DFC01812C912CDB
:100E400080E8A82E8FE3B82E82829382A482B58296
:100E5000CEE1D1E0D183C083C12CD12C90E2E92E28
:100E600091E4F92EC286D386E486F586F0934A0291
:100E7000E093490282E190E00E94E80DFC01828249
:100E80009382A482B582D183C083C286D386E4864E
:100E9000F5869093480280934702EEE3F2E08EE1FC
:100EA00090E09283818388E592E0948383838FEF3F
:100EB00093E096838583108617828EE08083EAE133
:100EC000F2E080E197E2A0E0B0E0848B958BA68B06
:100ED000B78B118E108E10A211A212A213A280E065
:100EE00090E0A0EAB0E484839583A683B78310865C
:100EF00011861286138614861586168617868FEF3E
:100F000090E0A0E0B0E0808B918BA28BB38BDF915F
:100F1000CF91FF90EF90DF90CF90BF90AF909F90D8
:100F20008F900895CF93DF93CDB7DEB762970FB65A
:100F3000F894DEBF0FBECDBF789484B5826084BDC7
:100F400084B5816084BD85B5826085BD85B58160CD
:100F500085BD80916E00816080936E00109281004B
:100F60008091810082608093810080918100816006
:100F700080938100809180008160809380008091C7
:100F8000B10084608093B1008091B0008160809353
:100F9000B00080917A00846080937A0080917A001A
:100FA000826080937A0080917A00816080937A00D9
:100FB00080917A00806880937A001092C100E0915D
:100FC0008D01F0918E0182E08083E0918901F091A2
:100FD0008A011082E0918B01F0918C0187E6808379
:100FE00010929501E0919101F091920186E0808349
:100FF000E0918F01F0919001808180618083E09188
:101000008F01F0919001808188608083E0918F0151
:10101000F0919001808180688083E0918F01F09150
:10102000900180818F7D80836BE271E0CE0101961B
:101030000E94D905CE0101960E948C03CE01019633
:101040000E94010662E0809160020E94F00182E548
:1010500092E00E9404058BE492E00E94040561E0A6
:1010600086E00E94F00184EF91E090933302809338
:10107000320203E010E062E370E08BE492E00E9451
:101080005F0462E370E082E592E00E945F0461E049
:1010900086E00E94C20164E670E080E090E00E9479
:1010A0005B0270E060E08BE492E00E945F0470E01D
:1010B00060E082E592E00E945F0460E086E00E94CA
:1010C000C20164E670E080E090E00E945B020150A3
:1010D000110989F666E371E0CE0101960E94D905F7
:1010E000CE0101960E948C03CE0101960E9401065A
:1010F0003324339490E0C92E90E0D92E0FEF10E006
:1011000022E0E22EFF24FA942091600230916102E5
:101110003327F901E255FF4F8491F901E656FF4F5D
:10112000B490F901EA57FF4F9490712C612C9920EB
:1011300099F081110E949901E92DF0E0EE0FFF1F57
:10114000E458FF4FA591B491EC91BE2291E080E06C
:1011500009F490E0692E782E80916402882309F4C6
:10116000AFC10E9436024090690250906A026090BE
:101170006B0270906C029B01AC0124193509460981
:10118000570929013A016093690270936A028093BA
:101190006B0290936C028091620290916302092E1F
:1011A000000CAA0BBB0B84159505A605B70510F41A
:1011B000109264028091650290916602892B09F079
:1011C0009CC1E0915D02F0915E02309709F00995B3
:1011D00080915F02811109C030925F02E091590253
:1011E000F0915A02309709F0099580910001909191
:1011F00001018130910509F095C180913E020E9464
:101200002102E0914102F091420240903F02509051
:1012100040029201841595052CF09C01E817F9070E
:101220000CF49F01052C000C66087708032E000CB7
:10123000440B550B2419350946095709AFEFB3E0A4
:101240000E944B0C9F01FF0F440B550B24193509CD
:10125000460957090E942C0C2901B901CE010796B5
:101260000E94A1051A8219821C821B821E821D8285
:1012700046E050E06FE371E0CE0101960E948005E8
:101280004B855C856F817885CE0101960E94420571
:10129000811104C0CE0101960E946E051E861D8636
:1012A000188A1F861A8A198ABE016F5F7F4FCE0186
:1012B0000D960E94EA05CE010D960E948C03CE0188
:1012C0000D960E940106CE0101960E940106CE01F4
:1012D00007960E9401060E943602609132027091C8
:1012E0003302072E000C880B990B0E940F0B4B0149
:1012F0005C01B201550C880B990B0E940F0B9B01EE
:10130000AC01C501B4010E94BE0C0E949D0D0E945B
:101310000F0B209122023091230240912402509120
:1013200025020E946E0B20E030E0A9010E94BF0C54
:101330000E949D0D60931A0270931B0280931C0201
:1013400090931D0260E070E0CB010E949D0D7093B0
:101350007C0160937B016C344FEF740714F077FFCE
:10136000D8C01093780100937701F0927A01E0924F
:1013700079016090490270904A0260917901709100
:101380007A01072E000C880B990B0E940F0BAB0102
:10139000BC01D301ED91FC910190F081E02DC301DE
:1013A00009950E949D0D82E592E00E945F04609184
:1013B000790170917A01CE0107960E94A10566E439
:1013C00071E0CE010D960E94D9054B855C856F8139
:1013D0007885CE010D960E944205811104C0CE0190
:1013E0000D960E946E051A8219821C821B821E8233
:1013F0001D82BE01635F7F4FCE0101960E94EA0508
:10140000CE0101960E948C03CE0101960E94010636
:10141000CE010D960E940106CE0107960E9401069C
:101420006090470270904802609177017091780156
:10143000072E000C880B990B0E940F0BAB01BC010F
:10144000D301ED91FC910190F081E02DC30109954C
:101450000E949D0D8BE492E00E945F0484E591E080
:101460000E947F0360917B0170917C01072E000C2C
:10147000880B990B0E94A10389E591E00E947F03EC
:101480006091500270915102072E000C880B990B4D
:101490000E94A10382E291E00E947F0362E370E078
:1014A00080E090E00E945B02C114D10409F42CCECC
:1014B0000E94F600882309F427CE0E94000024CE63
:1014C00080916702909168028615970509F472CEA3
:1014D0000E9436026093690270936A0280936B02E5
:1014E00090936C023092640270926802609267027C
:1014F00070926602609265025DCE80915F028823E1
:1015000009F473CE10925F02E0915B02F0915C02ED
:1015100069CE10937A0100937901F0927801E092FC
:10152000770127CF892B09F0B9CF70E060E082E521
:1015300092E00E945F0470E060E08BE492E00E9421
:101540005F0480913E020E9421022091430230916B
:10155000440282179307DCF4909344028093430281
:101560001A8219821C821B821E821D824BE050E06F
:1015700062E671E0CE0101960E948005CE010196DF
:101580000E948C03CE0101960E94010687CF209114
:101590004502309146022817390714F79093460206
:1015A00080934502DDCFBB274A3031F4992322F4E2
:1015B000BDE2909581959F4F0C94DF0ABB27FB01FC
:1015C0005527AA27880F991FAA1FA41710F0A41B3C
:1015D00083955051B9F7A05DAA3308F0A95DA19396
:1015E000009779F7B111B1931192CB010C94F80ADD
:1015F000DC01FC01672F71917723E1F7329704C07A
:101600007C916D9370836291AE17BF07C8F3089504
:101610000E944A0B08F481E00895E89409C097FB02
:101620003EF490958095709561957F4F8F4F9F4FB9
:101630009923A9F0F92F96E9BB279395F6958795FD
:1016400077956795B795F111F8CFFAF4BB0F11F4C0
:1016500060FF1BC06F5F7F4F8F4F9F4F16C0882367
:1016600011F096E911C0772321F09EE8872F762F9D
:1016700005C0662371F096E8862F70E060E02AF0DE
:101680009A95660F771F881FDAF7880F96958795CA
:1016900097F90895990F0008550FAA0BE0E8FEEF9F
:1016A00016161706E807F907C0F012161306E40726
:1016B000F50798F0621B730B840B950B39F40A261F
:1016C00061F0232B242B252B21F408950A2609F4FD
:1016D000A140A6958FEF811D811D08950E94810B69
:1016E0000C94F20B0E94E40B38F00E94EB0B20F0FC
:1016F000952311F00C94DB0B0C94E10B11240C944A
:10170000260C0E94030C70F3959FC1F3950F50E0D7
:10171000551F629FF001729FBB27F00DB11D639FA3
:10172000AA27F00DB11DAA1F649F6627B00DA11D49
:10173000661F829F2227B00DA11D621F739FB00DEF
:10174000A11D621F839FA00D611D221F749F33275F
:10175000A00D611D231F849F600D211D822F762FF8
:101760006A2F11249F5750409AF0F1F088234AF0D5
:10177000EE0FFF1FBB1F661F771F881F9150504041
:10178000A9F79E3F510580F00C94DB0B0C94260CBE
:101790005F3FE4F3983ED4F3869577956795B795C8
:1017A000F795E7959F5FC1F7FE2B880F911D9695E2
:1017B000879597F9089597F99F6780E870E060E052
:1017C00008959FEF80EC089500240A9416161706DA
:1017D00018060906089500240A9412161306140622
:1017E00005060895092E0394000C11F4882352F085
:1017F000BB0F40F4BF2B11F460FF04C06F5F7F4F3D
:101800008F4F9F4F089557FD9058440F551F59F023
:101810005F3F71F04795880F97FB991F61F09F3FDD
:1018200079F087950895121613061406551FF2CF06
:101830004695F1DF08C0161617061806991FF1CF56
:1018400086957105610508940895E894BB2766277D
:101850007727CB0197F90895052E97FB1EF4009486
:101860000E94430C57FD07D00E948D0C07FC03D04B
:101870004EF40C94430C50954095309521953F4F74
:101880004F4F5F4F089590958095709561957F4F6C
:101890008F4F9F4F08950E94AF0CA59F900DB49F4E
:1018A000900DA49F800D911D112408952F923F92B9
:1018B0004F925F926F927F928F929F92AF92BF9260
:1018C000CF92DF92EF92FF920F931F93CF93DF930C
:1018D000CDB7DEB7CA1BDB0B0FB6F894DEBF0FBE69
:1018E000CDBF09942A88398848885F846E847D84B6
:1018F0008C849B84AA84B984C884DF80EE80FD80B8
:101900000C811B81AA81B981CE0FD11D0FB6F8942D
:10191000DEBF0FBECDBFED010895A1E21A2EAA1BB6
:10192000BB1BFD010DC0AA1FBB1FEE1FFF1FA2178F
:10193000B307E407F50720F0A21BB30BE40BF50B8C
:10194000661F771F881F991F1A9469F76095709515
:10195000809590959B01AC01BD01CF010895A29F98
:10196000B001B39FC001A39F700D811D1124911D73
:10197000B29F700D811D1124911D08955058BB27F1
:10198000AA270E94D60C0C94F20B0E94E40B38F0AC
:101990000E94EB0B20F039F49F3F19F426F40C94CD
:1019A000E10B0EF4E095E7FB0C94DB0BE92F0E94B2
:1019B000030C58F3BA17620773078407950720F0E2
:1019C00079F4A6F50C94250C0EF4E0950B2EBA2FA5
:1019D000A02D0B01B90190010C01CA01A001112435
:1019E000FF27591B99F0593F50F4503E68F11A16E1
:1019F000F040A22F232F342F4427585FF3CF469572
:101A000037952795A795F0405395C9F77EF41F1693
:101A1000BA0B620B730B840BBAF09150A1F0FF0F5D
:101A2000BB1F661F771F881FC2F70EC0BA0F621F49
:101A3000731F841F48F4879577956795B795F79539
:101A40009E3F08F0B0CF9395880F08F09927EE0FCE
:101A50009795879508950E943F0D0C94F20B0E9474
:101A6000EB0B58F00E94E40B40F029F45F3F29F0A3
:101A70000C94DB0B51110C94260C0C94E10B0E947E
:101A8000030C68F39923B1F3552391F3951B550B80
:101A9000BB27AA2762177307840738F09F5F5F4F41
:101AA000220F331F441FAA1FA9F335D00E2E3AF080
:101AB000E0E832D091505040E695001CCAF72BD098
:101AC000FE2F29D0660F771F881FBB1F26173707E9
:101AD0004807AB07B0E809F0BB0B802DBF01FF271B
:101AE00093585F4F3AF09E3F510578F00C94DB0B12
:101AF0000C94260C5F3FE4F3983ED4F386957795DB
:101B00006795B795F7959F5FC9F7880F911D9695D3
:101B1000879597F90895E1E0660F771F881FBB1F2F
:101B2000621773078407BA0720F0621B730B840BDC
:101B3000BA0BEE1F88F7E09508950E94A40D6894F3
:101B4000B1110C94260C08950E940B0C88F09F573D
:101B500098F0B92F9927B751B0F0E1F0660F771FD1
:101B6000881F991F1AF0BA95C9F714C0B13091F0C7
:101B70000E94250CB1E008950C94250C672F782F56
:101B80008827B85F39F0B93FCCF38695779567958C
:101B9000B395D9F73EF490958095709561957F4FF8
:101BA0008F4F9F4F08950E94AF0C332312F48A1B6E
:101BB0009B0B0C94DD0D0E94AF0CB7FF0895821BA8
:101BC000930B0895EE0FFF1F0590F491E02D0994FB
:101BD0000F931F93CF93DF938230910510F482E02F
:101BE00090E0E0917302F091740230E020E0B0E008
:101BF000A0E0309799F42115310509F44AC0281B5B
:101C0000390B24303105D8F58A819B816115710526
:101C100089F1FB0193838283FE0111C040815181D0
:101C20000281138148175907E0F04817590799F4C2
:101C3000109761F012960C93129713961C9332969C
:101C4000CF01DF91CF911F910F91089500937302FF
:101C500010937402F4CF2115310551F04217530748
:101C600038F0A901DB019A01BD01DF01F801C1CF04
:101C7000EF01F9CF9093740280937302CDCFFE01F0
:101C8000E20FF31F81939193225031093983288306
:101C9000D7CF2091710230917202232B41F4209111
:101CA000040130910501309372022093710220915A
:101CB0000201309103012115310541F42DB73EB7E2
:101CC0004091060150910701241B350BE0917102F0
:101CD000F0917202E217F307A0F42E1B3F0B2817B6
:101CE000390778F0AC014E5F5F4F2417350748F095
:101CF0004E0F5F1F50937202409371028193919334
:101D00009FCFF0E0E0E09CCFCF93DF930097E9F026
:101D1000FC01329713821282A0917302B091740277
:101D2000ED0130E020E01097A1F420813181820F95
:101D3000931F20917102309172022817390709F020
:101D400061C0F0937202E0937102DF91CF91089528
:101D5000EA01CE17DF07E8F54A815B819E01411554
:101D60005105B1F7E901FB83EA8349915991C40F09
:101D7000D51FEC17FD0761F4808191810296840FD5
:101D8000951FE90199838883828193819B838A834C
:101D9000F0E0E0E012968D919C9113970097B9F5D1
:101DA0002D913C911197CD010296820F931F2091A6
:101DB0007102309172022817390739F6309751F5C0
:101DC0001092740210927302B0937202A093710287
:101DD000BCCFD383C28340815181840F951FC81724
:101DE000D90761F44E5F5F4F88819981480F591F71
:101DF000518340838A819B8193838283211531059E
:101E000009F0B0CFF0937402E09373029ECFFD010E
:101E1000DC01C0CF13821282D7CFB0E0A0E0E3E1B3
:101E2000FFE00C94580C8C01009751F4CB010E94F8
:101E3000E80D8C01C801CDB7DEB7E0E10C94740C5D
:101E4000FC01E60FF71F9C0122503109E217F3074E
:101E500008F49DC0D901CD91DC911197C617D70721
:101E600098F0C530D10530F3CE0104978617970757
:101E700008F3C61BD70B2297C193D1936D937C9324
:101E8000CF010E94840ED6CF5B01AC1ABD0A4C0173
:101E90008C0E9D1EA0917302B0917402512C412CA6
:101EA000F12CE12C109731F5809171029091720222
:101EB0008815990509F05CC04616570608F058C009
:101EC0008091020190910301009741F48DB79EB774
:101ED0004091060150910701841B950BE817F90703
:101EE00008F055C0F0937202E0937102F90171831A
:101EF0006083A0CF8D919C91119712966C90129750
:101F000013967C901397A815B90559F56C0142E01A
:101F1000C40ED11CCA14DB0420F1AC014A195B09C0
:101F2000DA011296159780F06282738251834083A2
:101F3000D9016D937C93E114F10471F0D7011396EC
:101F4000FC93EE93129776CF22968C0F9D1FF9018A
:101F500091838083F301EFCFF0937402E0937302D7
:101F600069CF4816590608F42C017D01D3019ACF98
:101F7000CB010E94E80D7C01009749F0AE01B80149
:101F80000E94CA0FC8010E94840E870153CF10E03F
:101F900000E050CFFB01DC0102C001900D924150E6
:101FA0005040D8F70895FB01DC0101900D9200200C
:101FB000E1F70895F894FFCF01000000750280005A
:101FC000000000002C018C00B9007901EA00C80073
:101FD000DC000000000044038D020D0A004D6F6418
:101FE000653A00426567696E536574757000456EA9
:101FF0006453657475700056616C7565200020200F
:102000004C6566744D2056616C3A20004469723A02
:102010000020204D6F746F723A0043616C696272E8
:062020006174696F6E009F
:107E0000112484B714BE81FFF0D085E080938100F7
:107E100082E08093C00088E18093C10086E0809377
:107E2000C20080E18093C4008EE0C9D0259A86E02C
:107E300020E33CEF91E0309385002093840096BBD3
:107E4000B09BFECF1D9AA8958150A9F7CC24DD24C4
:107E500088248394B5E0AB2EA1E19A2EF3E0BF2EE7
:107E6000A2D0813461F49FD0082FAFD0023811F036
:107E7000013811F484E001C083E08DD089C08234E0
:107E800011F484E103C0853419F485E0A6D080C0E4
:107E9000853579F488D0E82EFF2485D0082F10E0AE
:107EA000102F00270E291F29000F111F8ED06801E7
:107EB0006FC0863521F484E090D080E0DECF843638
:107EC00009F040C070D06FD0082F6DD080E0C81688
:107ED00080E7D80618F4F601B7BEE895C0E0D1E017
:107EE00062D089930C17E1F7F0E0CF16F0E7DF06D8
:107EF00018F0F601B7BEE89568D007B600FCFDCFD4
:107F0000A601A0E0B1E02C9130E011968C91119780
:107F100090E0982F8827822B932B1296FA010C0160
:107F200087BEE89511244E5F5F4FF1E0A038BF0790
:107F300051F7F601A7BEE89507B600FCFDCF97BE46
:107F4000E89526C08437B1F42ED02DD0F82E2BD052
:107F50003CD0F601EF2C8F010F5F1F4F84911BD097
:107F6000EA94F801C1F70894C11CD11CFA94CF0C13
:107F7000D11C0EC0853739F428D08EE10CD085E9AC
:107F80000AD08FE07ACF813511F488E018D01DD067
:107F900080E101D065CF982F8091C00085FFFCCF94
:107FA0009093C60008958091C00087FFFCCF809118
:107FB000C00084FD01C0A8958091C6000895E0E648
:107FC000F0E098E1908380830895EDDF803219F02E
:107FD00088E0F5DFFFCF84E1DECF1F93182FE3DFCA
:107FE0001150E9F7F2DF1F91089580E0E8DFEE27F6
:047FF000FF270994CA
:027FFE00040479
:00000001FF
