:020000040000FA
:100000000C9462000C947F000C947F000C947F0091
:100010000C947F000C947F000C947F000C947F0064
:100020000C947F000C947F000C947F000C947F0054
:100030000C947F000C947F000C947F000C947F0044
:100040000C9416020C947F000C947F000C947F009B
:100050000C947F000C947F000C947F000C947F0024
:100060000C947F000C947F00000000002300260009
:10007000290000000008000201000003040700003E
:1000800000000000000000000000250028002B00F8
:1000900000000000240027002A00040404040404D3
:1000A0000404020202020202030303030303010227
:1000B00004081020408001020408102001020408F6
:1000C0001020C20211241FBECFEFD8E0DEBFCDBF8B
:1000D00021E0A0E0B1E001C01D92A933B207E1F731
:1000E00010E0C2E6D0E004C02197FE010E940A039E
:1000F000C136D107C9F70E9460020C9410030C941A
:10010000000090E0FC01E255FF4F249186569F4F7E
:10011000FC018491882399F090E0880F991FFC01DD
:10012000E057FF4FA591B491FC01EA57FF4F85912D
:1001300094918FB7F894EC91E22BEC938FBF0895D4
:10014000833081F028F4813099F08230A9F008954D
:100150008730A9F08830C9F08430B1F480918000F4
:100160008F7D03C0809180008F77809380000895F9
:1001700084B58F7784BD089584B58F7DFBCF809142
:10018000B0008F778093B00008958091B0008F7D8C
:10019000F9CF1F93CF93DF93282F30E0F901EE586A
:1001A000FF4F8491F901E255FF4FD491F901E656D2
:1001B000FF4FC491CC23A9F0162F81110E94A000FB
:1001C000EC2FF0E0EE0FFF1FEA57FF4FA591B4911F
:1001D0008FB7F894EC91111108C0D095DE23DC9311
:1001E0008FBFDF91CF911F910895DE2BF8CFCF9372
:1001F000DF93EC0188850E94810089850E9481003F
:100200008A85DF91CF910C948100089508950F9312
:100210001F93CF93DF93EC012F8138853327F901AA
:10022000EE58FF4F8491F901E255FF4F0491F90117
:10023000E656FF4F14911123B1F081110E94A000E6
:10024000E12FF0E0EE0FFF1FE859FF4FA591B491A9
:10025000EC910E2341F08E81811118C0DF91CF9176
:100260001F910F910895EC81FD81309709F0099558
:100270008E818111F3CF81E08E83E881F9813097FF
:1002800069F3DF91CF911F910F9109941E82EA814A
:10029000FB81F5CFEF92FF920F931F93CF93DF93E4
:1002A000EC012FB7F8948091050190910601A0917F
:1002B0000701B09108012FBF88839983AA83BB836C
:1002C0006E817F812C813D81CB01821B930B09F4D0
:1002D00087C0EFEFFFEF1816190614F4E1E0F0E025
:1002E000AB85BC85EA9FA001EB9F500DFA9F500D96
:1002F0001124FA0157FF04C0EE27FF27E41BF50B7A
:1003000097FF03C09195819591098E179F07ECF493
:100310007D836C83EC80FD8060E0E114F104D1F416
:1003200089850E94C90060E088850E94C900CA854D
:100330008C2F0E94810060E08C2FDF91CF911F9164
:100340000F91FF90EF900C94C900240F351F3D834F
:100350002C83E0CF1E141F04CCF489850E94C900B1
:1003600061E088850E94C9000D851E85E016F106B2
:100370000CF48701CA858C2F0E948100011511059C
:10038000D1F20F3F110541F461E0D6CF88850E947C
:10039000C90061E08985E6CFEC2FF0E0EE58FF4F11
:1003A000E491E33049F140F4E130B1F0E230F9F0AA
:1003B000003811054CF7BFCFE73041F1E83071F15B
:1003C000E430B1F7809180008062809380001093C8
:1003D0008B0000938A0004C084B5806884BD07BD8B
:1003E000DF91CF911F910F91FF90EF90089584B509
:1003F000806284BD08BDF4CF8091800080688093C6
:1004000080001093890000938800EACF8091B000AB
:1004100080688093B0000093B300E2CF8091B00079
:1004200080628093B0000093B400DACF1F920F92E5
:100430000FB60F9211242F933F938F939F93AF93F7
:10044000BF938091050190910601A0910701B091A1
:1004500008013091040123E0230F2D3758F5019650
:10046000A11DB11D20930401809305019093060105
:10047000A0930701B09308018091000190910101C0
:10048000A0910201B09103010196A11DB11D8093BD
:10049000000190930101A0930201B0930301BF9169
:1004A000AF919F918F913F912F910F900FBE0F9021
:1004B0001F90189526E8230F0296A11DB11DD2CFDB
:1004C000789484B5826084BD84B5816084BD85B52F
:1004D000826085BD85B5816085BD80916E0081603B
:1004E00080936E00109281008091810082608093E1
:1004F00081008091810081608093810080918000E3
:100500008160809380008091B10084608093B1000D
:100510008091B00081608093B00080917A00846007
:1005200080937A0080917A00826080937A00809133
:100530007A00816080937A0080917A00806880934D
:100540007A001092C1008AE291E00E94F7008BE1EC
:1005500091E00E94F700C0E0D0E08AE291E00E94C2
:100560004A018BE191E00E944A0182E191E00E9400
:10057000070189E091E00E940701209771F30E9432
:100580000000EBCFEAE2F1E01082118212821382C6
:100590001582148217821682108681E0818782E09C
:1005A000828728EC30E0348723878FEF90E09687AE
:1005B0008587EBE1F1E010821182128213821582AD
:1005C00014821782168244E0408745E0418746E066
:1005D00042873487238796878587E2E1F1E0168298
:1005E00086E091E0918380831582148213821282C7
:1005F00082E090E090878783E9E0F1E0168225E0D1
:1006000031E0318320831582148213821282908715
:1006100087830895EE0FFF1F0590F491E02D099454
:04062000F894FFCF7C
:107E0000112484B714BE81FFF0D085E080938100F7
:107E100082E08093C00088E18093C10086E0809377
:107E2000C20080E18093C4008EE0C9D0259A86E02C
:107E300020E33CEF91E0309385002093840096BBD3
:107E4000B09BFECF1D9AA8958150A9F7CC24DD24C4
:107E500088248394B5E0AB2EA1E19A2EF3E0BF2EE7
:107E6000A2D0813461F49FD0082FAFD0023811F036
:107E7000013811F484E001C083E08DD089C08234E0
:107E800011F484E103C0853419F485E0A6D080C0E4
:107E9000853579F488D0E82EFF2485D0082F10E0AE
:107EA000102F00270E291F29000F111F8ED06801E7
:107EB0006FC0863521F484E090D080E0DECF843638
:107EC00009F040C070D06FD0082F6DD080E0C81688
:107ED00080E7D80618F4F601B7BEE895C0E0D1E017
:107EE00062D089930C17E1F7F0E0CF16F0E7DF06D8
:107EF00018F0F601B7BEE89568D007B600FCFDCFD4
:107F0000A601A0E0B1E02C9130E011968C91119780
:107F100090E0982F8827822B932B1296FA010C0160
:107F200087BEE89511244E5F5F4FF1E0A038BF0790
:107F300051F7F601A7BEE89507B600FCFDCF97BE46
:107F4000E89526C08437B1F42ED02DD0F82E2BD052
:107F50003CD0F601EF2C8F010F5F1F4F84911BD097
:107F6000EA94F801C1F70894C11CD11CFA94CF0C13
:107F7000D11C0EC0853739F428D08EE10CD085E9AC
:107F80000AD08FE07ACF813511F488E018D01DD067
:107F900080E101D065CF982F8091C00085FFFCCF94
:107FA0009093C60008958091C00087FFFCCF809118
:107FB000C00084FD01C0A8958091C6000895E0E648
:107FC000F0E098E1908380830895EDDF803219F02E
:107FD00088E0F5DFFFCF84E1DECF1F93182FE3DFCA
:107FE0001150E9F7F2DF1F91089580E0E8DFEE27F6
:047FF000FF270994CA
:027FFE00040479
:00000001FF
