:020000040000FA
:100000000C94E9000C9411010C9411010C94110151
:100010000C9411010C9411010C9411010C94110118
:100020000C9411010C9411010C9411010C94110108
:100030000C9411010C9411010C9411010C941101F8
:100040000C9419080C9411010C94E7070C94C10747
:100050000C9411010C9411010C9411010C941101D8
:100060000C9411010C94110100407A10F35A00A075
:10007000724E18090010A5D4E80000E87648170071
:1000800000E40B54020000CA9A3B000000E1F505B1
:10009000000080969800000040420F000000A086FB
:1000A00001000000102700000000E803000000002D
:1000B0006400000000000A000000000001000000D1
:1000C00000002C76D888DC674F0823DFC1DFAE59EB
:1000D000E1B1B796E5E3E453C63AE651997696E87E
:1000E000E6C28426EB898C9B62ED407C6FFCEFBC02
:1000F0009C9F40F2BAA56FA5F490055A2AF75C932D
:100100006B6CF9676DC11BFCE0E40D47FEF520E662
:10011000B500D0ED902E0300943577050080841E45
:10012000080000204E0A000000C80C333333330FA0
:10013000986E12831141EF8D2114893BE65516CF3D
:10014000FEE6DB18D1844B381BF77C1D901DA4BB49
:10015000E424203284725E228100C9F124ECA1E5FE
:100160003D2700000000240027002A0000000000B6
:10017000250028002B000000000023002600290095
:10018000040404040404040402020202020203033D
:100190000303030301020408102040800102040845
:1001A00010200102040810200000000800020100D5
:1001B000000304070000000000000000204D6F74E1
:1001C0006F724C3A2000204D6F746F72523A2000CB
:1001D000630811241FBECFEFD8E0DEBFCDBF11E012
:1001E000A0E0B1E0ECE5FAE202C005900D92AC357A
:1001F000B107D9F722E0ACE5B1E001C01D92AD3600
:10020000B207E1F710E0C9EED0E004C02197FE018B
:100210000E943413C83ED107C9F70E9410090C94FC
:100220002C150C940000CF92DF92EF92FF928091F8
:100230003A028E3008F08E508770806480937C0084
:1002400080917A00806480937A0080917A0086FDA4
:10025000FCCF8091780090917900E0913D02F0917F
:100260003E02C0903B02D0903C0296018C159D0549
:100270002CF09F018E179F070CF49C010D2C000C95
:10028000EE08FF08032E000C440B550B2C193D09FA
:100290004E095F09AFEFB3E00E9498119F01FF0F75
:1002A000440B550B2C193D094E095F090E94791129
:1002B000C901FF90EF90DF90CF900895AF92BF9269
:1002C000CF92DF92EF92FF920F931F93CF93DF9322
:1002D0006C017B018B01040F151FEB015E01AE1851
:1002E000BF08C017D10759F06991D601ED91FC9173
:1002F0000190F081E02DC6010995892B79F7C501A0
:10030000DF91CF911F910F91FF90EF90DF90CF90F1
:10031000BF90AF900895FC01538D448D252F30E0A0
:10032000842F90E0821B930B541710F0CF96089502
:1003300001970895FC01918D828D981761F0A28D2F
:10034000AE0FBF2FB11D5D968C91928D9F5F9F73F5
:10035000928F90E008958FEF9FEF0895FC01918DAB
:10036000828D981731F0828DE80FF11D858D90E018
:1003700008958FEF9FEF0895FC01918D228D892FB5
:1003800090E0805C9F4F821B91098F73992708959D
:100390008DE691E00E94BC0121E0892B09F420E068
:1003A000822F089580E090E0892B29F00E94C801F7
:1003B00081110C9400000895FC01A48DA80FB92FA1
:1003C000B11DA35ABF4F2C91848D90E001968F737D
:1003D0009927848FA689B7892C93A089B1898C919C
:1003E000837080648C93938D848D981306C00288EB
:1003F000F389E02D80818F7D80830895EF92FF92B5
:100400000F931F93CF93DF93EC0181E0888F9B8D37
:100410008C8D98131AC0E889F989808185FF15C0F1
:100420009FB7F894EE89FF896083E889F989808114
:100430008370806480839FBF81E090E0DF91CF91E3
:100440001F910F91FF90EF900895F62E0B8D10E005
:100450000F5F1F4F0F731127E02E8C8D8E110CC074
:100460000FB607FCFACFE889F989808185FFF5CFBF
:10047000CE010E94DC01F1CFEB8DEC0FFD2FF11DC1
:10048000E35AFF4FF0829FB7F8940B8FEA89FB89FC
:1004900080818062CFCFCF93DF93EC01888D88235A
:1004A000B9F0AA89BB89E889F9898C9185FD03C0D7
:1004B000808186FD0DC00FB607FCF7CF8C9185FFBC
:1004C000F2CF808185FFEDCFCE010E94DC01E9CF24
:1004D000DF91CF910895833081F028F4813099F035
:1004E0008230A9F008958730A9F08830C9F08430AF
:1004F000B1F4809180008F7D03C0809180008F7760
:1005000080938000089584B58F7784BD089584B565
:100510008F7DFBCF8091B0008F778093B0000895DE
:100520008091B0008F7DF9CF1F93CF93DF93282F59
:1005300030E0F901E855FE4F8491F901EC56FE4F89
:10054000D491F901E058FE4FC491CC23A9F0162FA5
:1005500081110E946B02EC2FF0E0EE0FFF1FE459B7
:10056000FE4FA591B4918FB7F894EC91111108C08A
:10057000D095DE23DC938FBFDF91CF911F9108953B
:10058000DE2BF8CFCF93DF9390E0FC01EC56FE4FCB
:10059000249180589E4FFC0184918823D1F090E0F3
:1005A000880F991FFC01EE59FE4FA591B491FC01F3
:1005B000E459FE4FC591D491623071F49FB7F8941D
:1005C0003C91822F809583238C93E8812E2B288366
:1005D0009FBFDF91CF9108958FB7F894EC912E2BA8
:1005E0002C938FBFF6CF1F93CF93DF93182FEB0180
:1005F00061E00E94C202209739F460E0812FDF9110
:10060000CF911F910C949402CF3FD10511F461E07A
:10061000F5CFE12FF0E0E855FE4FE491E33031F102
:1006200040F4E130B1F0E230E1F0C038D1057CF7C0
:10063000E4CFE73029F1E83059F1E430B1F78091A7
:100640008000806280938000D0938B00C0938A00EA
:1006500004C084B5806884BDC7BDDF91CF911F9170
:10066000089584B5806284BDC8BDF7CF80918000B5
:10067000806880938000D0938900C0938800EDCF7C
:100680008091B00080688093B000C093B300E5CF44
:100690008091B00080628093B000C093B400DDCF41
:1006A0003FB7F8948091610190916201A09163013C
:1006B000B091640126B5A89B05C02F3F19F00196A3
:1006C000A11DB11D3FBFBA2FA92F982F8827BC01AC
:1006D000CD01620F711D811D911D42E0660F771FD4
:1006E000881F991F4A95D1F708958F929F92AF92D4
:1006F000BF92CF92DF92EF92FF926B017C010E943A
:1007000050034B015C01C114D104E104F104B9F0C0
:100710000E945003681979098A099B09683E734051
:100720008105910580F321E0C21AD108E108F108A2
:1007300088EE880E83E0981EA11CB11CE4CFFF90C8
:10074000EF90DF90CF90BF90AF909F908F900895E3
:100750000F931F93CF93DF938C01EB0161308FEFE9
:1007600078070CF448C06F3F710509F014F5209725
:10077000A1F460E0F80181810E94940260E0F80138
:1007800080810E94940270E060E0F8018281DF9134
:10079000CF911F910F910C94F3021C161D065CF073
:1007A00060E0F80180810E94940261E0F80181819B
:1007B0000AC0CFEFD0E060E0F80181810E9494028E
:1007C00061E0F80180810E9494029E01D7FF03C07E
:1007D000319521953109F801A381B4810E94251337
:1007E0002FEF30E040E050E00E947911F8013683AD
:1007F0002583B901CBCFC1E0DFEFD2CFCF92DF921B
:10080000EF92FF920F931F93CF93DF938C01D0E071
:10081000C0E06B01770FEE08FF0862E370E083E44D
:1008200092E00E94A80362E370E08AE492E00E94F2
:10083000A80361E086E00E94940264E670E080E034
:1008400090E00E94750370E060E083E492E00E9413
:10085000A80370E060E08AE492E00E94A80360E0F0
:1008600086E00E949402C701B6010E94750321969A
:100870000C171D0791F6DF91CF911F910F91FF90FB
:10088000EF90DF90CF900895CF93DF93EC0161E07C
:1008900088810E94C20261E089810E94C20261E0F7
:1008A0008A810E94C20270E060E0CE01DF91CF91A8
:1008B0000C94A8034F925F926F927F928F929F92B7
:1008C000AF92BF92CF92DF92EF92FF920F931F935E
:1008D000CF93DF93EC012A013B01C901B8010E94CB
:1008E0005C102A813B814C815D810E94BB106B01B1
:1008F0007C018A849B84AC84BD8420E030E040E8A5
:100900005FE30E942013181634F4C12CD12C80E828
:10091000E82E8FE3F82EA701960160E070E080E8F2
:100920009FE30E940B12A50194010E94BB104B0192
:100930005C01A7019601C301B2010E94BB109B019B
:10094000AC01C501B4010E940C126A877B878C87B9
:100950009D87DF91CF911F910F91FF90EF90DF90D6
:10096000CF90BF90AF909F908F907F906F905F904F
:100970004F9008952F923F924F925F926F927F9285
:100980008F929F92AF92BF92CF92DF92EF92FF929F
:100990000F931F93CF93DF93CDB7DEB72A970FB690
:1009A000F894DEBF0FBECDBF9A8389836A017B01B5
:1009B000DC011E968D909D90AD90BC905197C90121
:1009C000B8010E945C102B013C01A5019401C701F4
:1009D000B6010E940B12A30192010E947812362EDA
:1009E000272E8B839C83A981BA811A968D919D9124
:1009F0000D90BC91A02D8D839E83AF83B887BC01E1
:100A0000CD019058A30192010E94BB10162F7A8746
:100A10008987092F232D322D4B815C810E94201361
:100A20001816CCF02D813E814F815885C301B2014B
:100A30000E94BB10162F7A878987092F232D322D0C
:100A40004B815C810E94551087FD05C0132D2A86BD
:100A5000BB81B9870C81212F3A854985502FC5016B
:100A6000B4010E940C122B013C01A7019601C501A3
:100A7000B4010E945510881F8827881F8B83A70107
:100A80009601C301B2010E945510881F8827881F54
:100A9000EB81E81749F1A981BA811E96CD92DD92CA
:100AA000ED92FC925197A981BA811E966D917D912C
:100AB0008D919C9151972A960FB6F894DEBF0FBE88
:100AC000CDBFDF91CF911F910F91FF90EF90DF90FD
:100AD000CF90BF90AF909F908F907F906F905F90DE
:100AE0004F903F902F900895E981FA81468657866E
:100AF000608A718AD8CF8F929F92AF92BF92CF9225
:100B0000DF92EF92FF920F931F932FB7F894C0904C
:100B10005D01D0905E01E0905F01F09060012FBF19
:100B2000DC0116960D911D912D913C91199746016E
:100B30005701801A910AA20AB30A950184011696F8
:100B4000CD92DD92ED92FC921997ED91FC9102808D
:100B5000F381E02D09951F910F91FF90EF90DF90A9
:100B6000CF90BF90AF909F908F900895FC0101901F
:100B70000020E9F73197AF01481B590BBC018DE606
:100B800091E00C945E01CF93DF93FC014481558189
:100B9000608171818DE691E00E945E01EC0188E147
:100BA00091E00E94B6058C0F9D1FDF91CF910895B3
:100BB0000F931F93CF93DF93EC0188819981009766
:100BC00059F02A813B812617370730F081E0DF9109
:100BD000CF911F910F9108958B016F5F7F4F0E94FE
:100BE0005F14009759F0998388831B830A832C81B3
:100BF0003D81232B59F7FC011082E8CF80E0E7CF3D
:100C0000EF92FF920F931F93CF93DF93EC017B0141
:100C1000CB010E94BE0D0097A9F00C811D81080F29
:100C2000191FB801CE010E94D805882361F02881E0
:100C300039818C819D81B701820F931F0E94B70D6E
:100C40001D830C8381E0DF91CF911F910F91FF9065
:100C5000EF900895CF93DF93EC01888199810097FD
:100C600011F00E94D613198218821D821C821B82E9
:100C70001A82DF91CF910895EF92FF920F931F9305
:100C8000CF93DF93EC01FB01E080F180E114F104EC
:100C900011F10481158101151105A9F08C819D8147
:100CA000080F191FB801CE010E94D805882399F0BA
:100CB000288139818C819D81B701820F931F0E9409
:100CC00025151D830C83CE01DF91CF911F910F91CC
:100CD000FF90EF900895CE010E942A06F4CFEF9284
:100CE000FF920F931F93CF93DF93EC017B018A0157
:100CF000BA010E94D80581110BC0CE010E942A06BC
:100D0000CE01DF91CF911F910F91FF90EF90089549
:100D10001D830C83B701888199810E942515F0CF2E
:100D2000FB0101900020E9F73197AF01461B570BFB
:100D30000C946F060F931F93CF93DF93CDB7DEB75D
:100D400062970FB6F894DEBF0FBECDBF8C01CB010A
:100D5000F8011182108213821282158214824AE0F5
:100D6000BE016F5F7F4F0E94C70DBE016F5F7F4F57
:100D7000C8010E94900662960FB6F894DEBF0FBEBF
:100D8000CDBFDF91CF911F910F910895EF92FF9208
:100D90000F931F93CF93DF93CDB7DEB7A1970FB615
:100DA000F894DEBF0FBECDBF7C01CB01BA01F701C5
:100DB0001182108213821282158214828E010F5FBB
:100DC0001F4F22E044E00E94990D009789F0BC017A
:100DD000C7010E949006A1960FB6F894DEBF0FBE21
:100DE000CDBFDF91CF911F910F91FF90EF900895AC
:100DF000C7010E942A06EFCFCF93DF93EC01FB01DE
:100E00008617970749F0608171816115710541F07E
:100E1000448155810E946F06CE01DF91CF910895E4
:100E20000E942A06F9CFFC011182108213821282DD
:100E300015821482FB0101900020E9F73197AF0180
:100E4000461B570B0C946F06FC0180819181009723
:100E500011F00C94D61308958F929F92AF92BF9287
:100E6000CF92DF92EF92FF92CF93DF93CDB7DEB7B1
:100E7000A1970FB6F894DEBF0FBECDBF80916B0176
:100E800090916C01009709F055C081E090E090933B
:100E90006C0180936B0168EC70E085E090E00E944B
:100EA000FE038BE191E00E94B605C0906B01D090EB
:100EB0006C010D2C000CEE08FF08F7FE47C06DE238
:100EC0008DE691E00E94FE0122273327A9012C190B
:100ED0003D094E095F0919A2CE0181967C019AE075
:100EE000892E912CA12CB12CCA01B901A501940124
:100EF0000E94DA11605DF70162937F0121153105CF
:100F00004105510589F7E114F10419F0C7010E9468
:100F1000B605A1960FB6F894DEBF0FBECDBFDF9128
:100F2000CF91FF90EF90DF90CF90BF90AF909F90C8
:100F30008F900895019709F0B4CF10926C01109230
:100F40006B0164E670E082E090E0A9CFA701960112
:100F500019A2CE0181967C018AE0882E912CA12CC9
:100F6000B12CCA01B901A50194010E94DA11605D9A
:100F7000F70162937F01211531054105510589F77C
:100F8000C2CF1F920F920FB60F9211242F933F934F
:100F90004F935F936F937F938F939F93AF93BF9381
:100FA000EF93FF938DE691E00E94DC01FF91EF91BA
:100FB000BF91AF919F918F917F916F915F914F9171
:100FC0003F912F910F900FBE0F901F9018951F9279
:100FD0000F920FB60F9211242F938F939F93EF933D
:100FE000FF93E0917D01F0917E018081E09183018A
:100FF000F091840182FD1BC09081809186018F5FFA
:101000008F7320918701821741F0E0918601F0E013
:10101000E359FE4F958F80938601FF91EF919F9149
:101020008F912F910F900FBE0F901F901895808178
:10103000F4CF1F920F920FB60F9211242F933F936C
:101040008F939F93AF93BF9380915D0190915E01C9
:10105000A0915F01B091600130915C0123E0230F0A
:101060002D3758F50196A11DB11D20935C01809389
:101070005D0190935E01A0935F01B0936001809148
:10108000610190916201A0916301B09164010196A8
:10109000A11DB11D8093610190936201A093630132
:1010A000B0936401BF91AF919F918F913F912F9128
:1010B0000F900FBE0F901F90189526E8230F0296F1
:1010C000A11DB11DD2CFEDE6F1E01382128288EEB0
:1010D00093E0A0E0B0E084839583A683B7838AE0A1
:1010E00091E09183808385EC90E09587848784EC00
:1010F00090E09787868780EC90E0918B808B81ECE5
:1011000090E0938B828B82EC90E0958B848B86ECC5
:1011100090E0978B868B118E128E138E148EE1E5E4
:10112000F2E01682138681E090E0958784879787A6
:101130008687108A118A128A138A148A158A168A57
:10114000178A8CE297E09183808315821482138240
:10115000128287E090E09087878388EC90E0928706
:101160008187EAE4F2E08DE080838CE081838BE08C
:1011700082838FEF90E094838383E3E4F2E028E0BE
:10118000208329E021832AE0228394838383EAE376
:10119000F2E0128211828FEF93E09483838396832F
:1011A0008583108617828EE08083EAE0F2E080E19A
:1011B00097E2A0E0B0E0848F958FA68FB78F10A242
:1011C00011A212A213A214A615A616A617A68FE89E
:1011D00092ECA5E7BEE384839583A683B78310864C
:1011E000118612861386148615861686178680E069
:1011F00090E0AFE7B3E4808B918BA28BB38B80E060
:1012000090E0A6E1B3E4848B958BA68BB78B80E04E
:1012100090E0A8ECB2E4808F918FA28FB38F0895F5
:10122000CF93DF93CDB7DEB7CB55D1090FB6F89486
:10123000DEBF0FBECDBF789484B5826084BD84B517
:10124000816084BD85B5826085BD85B5816085BDC1
:1012500080916E00816080936E0010928100809179
:101260008100826080938100809181008160809301
:101270008100809180008160809380008091B10026
:1012800084608093B1008091B00081608093B00051
:1012900080917A00846080937A0080917A008260E5
:1012A00080937A0080917A00816080937A008091A7
:1012B0007A00806880937A001092C100E0917D01ED
:1012C000F0917E0182E08083E0917901F0917A01D2
:1012D0001082E0917B01F0917C0187E6808310927F
:1012E0008501E0918101F091820186E08083E091A7
:1012F0007F01F0918001808180618083E0917F0196
:10130000F0918001808188608083E0917F01F0917D
:101310008001808180688083E0917F01F09180016D
:1013200080818F7D808361E271E0CE0101960E9411
:101330001307CE0101960E94C305CE0101960E94BB
:10134000240762E0809158020E94C2028AE492E07F
:101350000E94440483E492E00E94440461E086E039
:101360000E94C20280E090E0A6E9B3E480932A02E2
:1013700090932B02A0932C02B0932D028CE190E06D
:1013800090933C0280933B0280E991E090933E026F
:1013900080933D0264E670E083E090E00E94FE03EB
:1013A0006CE271E0CE0101960E941307CE01019616
:1013B0000E94C305CE0101960E9424070FEF10E0A2
:1013C00090E0292E90E0392E209158023091590258
:1013D0003327F901E855FE4F8491F901EC56FE4F91
:1013E000F490F901E058FE4FE490EE2009F4F8C2C1
:1013F00081110E946B02EE2DF0E0EE0FFF1FEA5804
:10140000FE4FA591B491EC91FE2291E080E009F4A9
:1014100090E0E92EF82E80915C02882309F4E3C263
:101420000E945003C0906102D0906202E09063027B
:10143000F09064029B01AC012C193D094E095F0933
:1014400069017A0160936102709362028093630282
:101450009093640280915A0290915B02092E000CD5
:10146000AA0BBB0B8C159D05AE05BF0510F41092A1
:101470005C0280915D0290915E02892B09F0D1C2DD
:10148000E0915502F0915602309709F0099580914C
:10149000570281110AC081E080935702E091510206
:1014A000F0915202309709F0099580916B0190916B
:1014B0006C01019709F01FC30E9413017C01BC015C
:1014C000CE0182960E949A0665E371E0CE010196F4
:1014D0000E941307BE016E5D7F4FCE0101960E94F0
:1014E0003C0619A618A61BA61AA61DA61CA6BC017A
:1014F000CE0188960E94FC06CE0188960E94C30504
:10150000CE0188960E942407CE0101960E942407EE
:10151000CE0182960E942407B701FF0C880B990B1D
:101520000E945C1028966CAF7DAF8EAF9FAF28975E
:101530000E945003C0903602D0903702E0903802EB
:10154000F09039029B01AC012C193D094E095F094D
:1015500024962CAF3DAF4EAF5FAF24976093360219
:101560007093370280933802909339021BA21AA21B
:101570001DA21CA21FA21EA22AE0AE014F5F5F4F58
:1015800024966CAD7DAD8EAD9FAD24970E94D20D9B
:10159000BE016F5F7F4FCE0182960E9490066CE382
:1015A00071E0CE0101960E941307BE016E5D7F4F70
:1015B000CE0101960E943C060E94C305CE01019611
:1015C0000E942407CE0182960E94240728962CAD03
:1015D0003DAD4EAD5FAD289760912A0270912B0210
:1015E00080912C0290912D020E940B122B013C0144
:1015F00020910E0230910F02409110025091110281
:101600000E94BB1020E030E0A9010E940C126896F5
:101610006CAF7DAF8EAF9FAF689780912E02909197
:101620002F02A0913002B09131022C968CAF9DAF69
:10163000AEAFBFAF2C9724966CAD7DAD8EAD9FAD98
:1016400024970E945A1060966CAF7DAF8EAF9FAF0B
:1016500060972C962CAD3DAD4EAD5FAD2C97C30180
:10166000B2010E940C1220E030E040E05FE30E94F3
:10167000BB1060962CAD3DAD4EAD5FAD60970E9446
:10168000BB1020E034E244E759E40E947812209134
:1016900012023091130240911402509115020E94DF
:1016A000BB104B015C0120911E0230911F02409142
:1016B0002002509121026C962CAF3DAF4EAF5FAF30
:1016C0006C978091320290913302A0913402B091D4
:1016D000350264968CAF9DAFAEAFBFAF64979C01EF
:1016E000AD01C501B4010E940C126B017C0120E028
:1016F00030E0A9010E942013181624F0F7FAF094A4
:10170000F7F8F094A70196016C966CAD7DAD8EADA7
:101710009FAD6C970E940B1220E030E0A9010E945F
:10172000201318161CF0812C912C5401A501940152
:1017300064966CAD7DAD8EAD9FAD64970E940C122A
:101740009B01AC0120933202309333024093340268
:101750005093350268966CAD7DAD8EAD9FAD6897A8
:101760000E940C126B017C0124962CAD3DAD4EAD58
:101770005FAD2497232B242B252B51F12C962CADD8
:101780003DAD4EAD5FAD2C97C301B2010E940B126F
:1017900060962CAD3DAD4EAD5FAD60970E94781266
:1017A00020E034E244E759E40E94781220911602C6
:1017B0003091170240911802509119020E94BB10FB
:1017C0009B01AC01C701B6010E940C126B017C01A8
:1017D00040922E0250922F0260923002709231029B
:1017E000C0920A02D0920B02E0920C02F0920D021B
:1017F000C701B6010E94EA129B0170936A016093CF
:1018000069016C344FEF74070CF43CC1653B710502
:101810000CF03BC16115710509F00FC11093660111
:10182000009365011093680100936701A090670120
:10183000B0906801B5018AE492E00E94A80360912B
:1018400065017091660183E492E00E94A803B501EE
:10185000CE0182960E949A066091650170916601A0
:10186000CE0188960E949A06B701A601CE018E96F7
:101870000E94C60628964CAD5DAD6EAD7FAD289733
:10188000CE01C4960E94C60666E471E0CE01CA96F7
:101890000E941307BE016C5C7F4FCE01CA960E9466
:1018A0003C067C01DC011496CD90DC90BAE0CB0EB6
:1018B000D11CB6010E94D80581110CC1C7010E943C
:1018C0002A06BE01625D7F4FC7010E943C067C0173
:1018D00066EC71E00E940006811103C0C7010E94FE
:1018E0002A06BE01685D7F4FC7010E943C067C014D
:1018F0006CEB71E00E940006811103C0C7010E94D9
:101900002A06BE016E5D7F4FC7010E943C061A8207
:1019100019821C821B821E821D82BC01CE0101968F
:101920000E94FC06CE0101960E94C305CE010196DD
:101930000E942407CE01CA960E942407CE01C496B5
:101940000E942407CE018E960E942407CE0188961D
:101950000E942407CE0182960E9424076AE070E06C
:1019600080E090E00E94750360916B0170916C01C2
:10197000CE0182960E949A066CE471E0CE018896B0
:101980000E941307BE016E5D7F4FCE0188960E94B4
:101990003C061A8219821C821B821E821D82BC0197
:1019A000CE0101960E94FC06CE0101960E94C3055D
:1019B000CE0101960E942407CE0188960E9424073A
:1019C000CE0182960E9424072114310409F4FCCC34
:1019D0000E94C801882309F4F1CC0E940000EECCDB
:1019E000F12CE12C18CD80915F02909160028E1550
:1019F0009F0509F43ECD0E945003609361027093ED
:101A00006202809363029093640281E080935C029F
:101A1000F0926002E0925F02F0925E02E0925D025C
:101A200028CD80915702882309F43FCD10925702A8
:101A3000E0915302F091540235CD77FF28C0109306
:101A4000660100936501B901330F880B990B0E9461
:101A50005C1028EB36E046E35CE30E94BB1020E01C
:101A600030E040E85FE30E940C1220E030E04FE7F6
:101A700053E40E94BB100E94EA12709368016093C5
:101A80006701D4CE2CE43FEFDACF24EB30E01093A3
:101A9000680100936701B901330F880B990B0E940D
:101AA0005C1028EB36E046E35CEB0E94BB1020E0C4
:101AB00030E040E85FE30E940C1220E030E04FE7A6
:101AC00053E40E94BB100E94EA1270936601609377
:101AD0006501ACCEF701208131818481958161E47B
:101AE00071E0820F931F0E942515D7011596DC9295
:101AF000CE921497E6CE70E060E08AE492E00E9415
:101B0000A80370E060E083E492E00E94A8030E94D2
:101B100013012FEF30E0DC010E942D132FEF33E093
:101B200040E050E00E947911B90186E00E94F30282
:101B300015CFEF920F931F93CF93DF93E80134E01B
:101B400047FD34E1042E000C550B57FF03C051959F
:101B500041955109E32E022F242FAE010E940E0E53
:101B6000CE01DF91CF911F910F91EF900895FB016E
:101B7000DC0105900D920020E1F70895FC0105902D
:101B80000020E9F7809590958E0F9F1F0895BB2741
:101B90004A3031F4992322F4BDE2909581959F4F0C
:101BA0000C94F50DBB27FA01A62F6217710581056C
:101BB0009105330B30FB66F0AA27660F771F881F4D
:101BC000991FAA1FA21710F0A21B63953850A9F7FE
:101BD000A05DAA3308F0A95DA19336F7B111B193C6
:101BE0001082CA010C944510BB27FB015527AA2778
:101BF000880F991FAA1FA41710F0A41B839550519A
:101C0000B9F7A05DAA3308F0A95DA193009779F711
:101C1000B111B1931192CB010C944510A9E0B0E041
:101C2000E4E1FEE00C94A9116A01F22EB02E102F0F
:101C3000FBE3AF2EA01608F41BE31F5F012F27E084
:101C4000AE014F5F5F4F0E946D0FBC018981982FDD
:101C50009970913009F43FC09BE2E1FC04C09E2DD5
:101C60009170E0FC3AC05E2D5071E82FE87083FF60
:101C700046C084E0911101C083E0EF2DE81B8F1571
:101C800008F0E0E0D6018E2F20E2552351F1992390
:101C900029F0D6019C93C60101966C0196012D5F37
:101CA0003F4FE2FE24C08EE4D6018C9391E411965E
:101CB0009C93119712968C93D9018E2F90E28111EB
:101CC0001BC0E20FF32FF11D10828EEF9FEF2996BC
:101CD000ECE00C94C5119DE2C6CF90E2C4CF2D93E9
:101CE00081508111FCCFCE0ED11CE0E0D0CF8EE62A
:101CF000D6018C9391E6DBCF9D938150E0CF482FA6
:101D0000447082FF3DC084E0911101C083E08F15D3
:101D100010F4EF2DE81BD6018E2F20E2552309F198
:101D2000992329F0D6019C93C60101966C01960176
:101D30002D5F3F4FE2FE1BC089E4D6018C938EE4F9
:101D400011968C93119786E412968C93D9018E2F5D
:101D500090E2882309F4B5CF9D938150FACF2D935B
:101D600081508111FCCFCE0ED11CE0E0D9CF89E6A5
:101D7000D6018C938EE611968C93119786E6E4CF6C
:101D80009B0177FF02C030E020E0A1E0B0E09111BC
:101D900002C0B0E0A0E0F9013196AE0FBF1F8B2C5E
:101DA000912CBB2009F461C05401EFEFAE1ABE0ABA
:101DB000AA0DBB1DFA161B0619F014F04F2D4A1B75
:101DC000511188C0E3FC59C07601A42FB0E2A111E3
:101DD0004FC0C40ED11C992309F45BC040E0D6016A
:101DE0001196F60190836D01552309F448C0012F27
:101DF000060F9A81582F507184FF03C0913309F464
:101E0000015010160CF047C0093008F008E0EEE26F
:101E1000FE2E5B01A01AB10885019194819491086E
:101E20002F3F320729F4D601FC92F60131966F015B
:101E30006217730794F1021713077CF5DB01A21BED
:101E4000B30BAA24A394B12CAC0EBD1EAA0DBB1DCE
:101E500011968C9121503109D6011196281539051A
:101E6000F4F0F60180836D01DBCFB12CA12CA0CF63
:101E7000F701B1937F01A150AACF9111B0CFD60144
:101E8000942F50E302C05D9391509111FCCFC40E8A
:101E9000D11C40E0ACCF01E0BACF80E3DBCF6217CA
:101EA000730731F4963388F4953311F4552369F0B0
:101EB000F6018083FD01842F90E2811108C0A40FF8
:101EC000B11D1C9290E080E002CF81E3F1CF9193AD
:101ED0008150F3CF911183CF8ACF283008F027E0CB
:101EE0003327DA01990F311D87FD91600096610556
:101EF000710539F432602E5F3D9330E32A95E1F7A6
:101F000008959F3F30F080387105610509F03C5F0E
:101F10003C5F3D93913008F08068911DDF93CF9333
:101F20001F930F93FF92EF92192F987F9695E92FA9
:101F300096959695E90FFF27EE53FF4F9927332784
:101F4000EE24FF24A701E70105900894079428F4E4
:101F5000360FE71EF81E491F511D660F771F881F99
:101F6000991F0694A1F70590079428F4E70EF81E30
:101F7000491F561FC11D770F881F991F661F0694A2
:101F8000A1F70590079428F4F80E491F561FC71FA4
:101F9000D11D880F991F661F771F0694A1F7059022
:101FA000079420F4490F561FC71FD81F990F661FAB
:101FB000771F881F0694A9F784911095177041F038
:101FC000D695C79557954795F794E7941A95C1F715
:101FD000E8E6F0E06894159015913591659195913A
:101FE00005907FE27395E118F10A430B560BC90B7C
:101FF000D009C0F7E10CF11E431F561FC91FD01DA9
:102000007EF4703311F48A95E6CFE894015030F0F5
:10201000080F0AF40027021708F4202F2395022F37
:102020007A3328F079E37D932A95E9F710C07D9300
:102030002A9589F60694979567953795179517947D
:10204000E118F10A430B560BC90BD00998F0239500
:102050007E9173957A3308F070E37C932013B8F780
:102060007E9170617D9330F0839571E37D9370E391
:102070002A95E1F71124EF90FF900F911F91CF91D6
:10208000DF91992787FD90950895DC01FC01672F6A
:1020900071917723E1F7329704C07C916D9370833F
:1020A0006291AE17BF07C8F308950E94971008F415
:1020B00081E00895E89409C097FB3EF490958095DF
:1020C000709561957F4F8F4F9F4F9923A9F0F92FFE
:1020D00096E9BB279395F695879577956795B7957C
:1020E000F111F8CFFAF4BB0F11F460FF1BC06F5F62
:1020F0007F4F8F4F9F4F16C0882311F096E911C074
:10210000772321F09EE8872F762F05C0662371F094
:1021100096E8862F70E060E02AF09A95660F771FA8
:10212000881FDAF7880F9695879597F90895990F84
:102130000008550FAA0BE0E8FEEF16161706E80791
:10214000F907C0F012161306E407F50798F0621BB2
:10215000730B840B950B39F40A2661F0232B242B87
:10216000252B21F408950A2609F4A140A6958FEFA6
:10217000811D811D08950E94CE100C943F110E9474
:10218000311138F00E94381120F0952311F00C9491
:1021900028110C942E1111240C9473110E945011CB
:1021A00070F3959FC1F3950F50E0551F629FF001AA
:1021B000729FBB27F00DB11D639FAA27F00DB11DC3
:1021C000AA1F649F6627B00DA11D661F829F22274C
:1021D000B00DA11D621F739FB00DA11D621F839FD3
:1021E000A00D611D221F749F3327A00D611D231FA9
:1021F000849F600D211D822F762F6A2F11249F57F7
:1022000050409AF0F1F088234AF0EE0FFF1FBB1FF9
:10221000661F771F881F91505040A9F79E3F5105B8
:1022200080F00C9428110C9473115F3FE4F3983EF6
:10223000D4F3869577956795B795F795E7959F5F62
:10224000C1F7FE2B880F911D9695879597F90895F4
:1022500097F99F6780E870E060E008959FEF80EC59
:10226000089500240A9416161706180609060895FC
:1022700000240A9412161306140605060895092E62
:102280000394000C11F4882352F0BB0F40F4BF2BD1
:1022900011F460FF04C06F5F7F4F8F4F9F4F089511
:1022A00057FD9058440F551F59F05F3F71F0479507
:1022B000880F97FB991F61F09F3F79F087950895EC
:1022C000121613061406551FF2CF4695F1DF08C00B
:1022D000161617061806991FF1CF86957105610528
:1022E00008940895E894BB2766277727CB0197F9D0
:1022F0000895052E97FB1EF400940E94901157FD3F
:1023000007D00E94DA1107FC03D04EF40C94901110
:1023100050954095309521953F4F4F4F5F4F089511
:1023200090958095709561957F4F8F4F9F4F089541
:102330000E94FC11A59F900DB49F900DA49F800D4D
:10234000911D112408952F923F924F925F926F92A8
:102350007F928F929F92AF92BF92CF92DF92EF9235
:10236000FF920F931F93CF93DF93CDB7DEB7CA1BB6
:10237000DB0B0FB6F894DEBF0FBECDBF09942A88E1
:10238000398848885F846E847D848C849B84AA8489
:10239000B984C884DF80EE80FD800C811B81AA8116
:1023A000B981CE0FD11D0FB6F894DEBF0FBECDBFE1
:1023B000ED010895A1E21A2EAA1BBB1BFD010DC061
:1023C000AA1FBB1FEE1FFF1FA217B307E407F507E5
:1023D00020F0A21BB30BE40BF50B661F771F881FC1
:1023E000991F1A9469F760957095809590959B0157
:1023F000AC01BD01CF010895A29FB001B39FC00100
:10240000A39F700D811D1124911DB29F700D811D20
:102410001124911D08955058BB27AA270E9423120A
:102420000C943F110E94311138F00E94381120F0B5
:1024300039F49F3F19F426F40C942E110EF4E09514
:10244000E7FB0C942811E92F0E94501158F3BA179A
:10245000620773078407950720F079F4A6F50C94BA
:1024600072110EF4E0950B2EBA2FA02D0B01B901BD
:1024700090010C01CA01A0011124FF27591B99F0FA
:10248000593F50F4503E68F11A16F040A22F232F06
:10249000342F4427585FF3CF469537952795A79556
:1024A000F0405395C9F77EF41F16BA0B620B730BFD
:1024B000840BBAF09150A1F0FF0FBB1F661F771F6E
:1024C000881FC2F70EC0BA0F621F731F841F48F423
:1024D000879577956795B795F7959E3F08F0B0CFAC
:1024E0009395880F08F09927EE0F97958795089593
:1024F0000E948C120C943F110E94381158F00E94D7
:10250000311140F029F45F3F29F00C94281151114A
:102510000C9473110C942E110E94501168F399239E
:10252000B1F3552391F3951B550BBB27AA276217CF
:102530007307840738F09F5F5F4F220F331F441FDC
:10254000AA1FA9F335D00E2E3AF0E0E832D0915010
:102550005040E695001CCAF72BD0FE2F29D0660FFD
:10256000771F881FBB1F261737074807AB07B0E840
:1025700009F0BB0B802DBF01FF2793585F4F3AF046
:102580009E3F510578F00C9428110C9473115F3F15
:10259000E4F3983ED4F3869577956795B795F795CC
:1025A0009F5FC9F7880F911D9695879597F90895B4
:1025B000E1E0660F771F881FBB1F62177307840750
:1025C000BA0720F0621B730B840BBA0BEE1F88F75F
:1025D000E09508950E94F1126894B1110C94731162
:1025E00008950E94581188F09F5798F0B92F9927A5
:1025F000B751B0F0E1F0660F771F881F991F1AF0EE
:10260000BA95C9F714C0B13091F00E947211B1E0CF
:1026100008950C947211672F782F8827B85F39F0CE
:10262000B93FCCF3869577956795B395D9F73EF486
:1026300090958095709561957F4F8F4F9F4F08952E
:102640000E94971008F48FEF08950E94FC11332325
:1026500012F48A1B9B0B0C942F130E94FC11B7FFE2
:102660000895821B930B0895EE0FFF1F0590F491C0
:10267000E02D09940F931F93CF93DF938230910540
:1026800010F482E090E0E0916B02F0916C0230E097
:1026900020E0B0E0A0E0309799F42115310509F46D
:1026A0004AC0281B390B24303105D8F58A819B811B
:1026B0006115710589F1FB0193838283FE0111C0CD
:1026C000408151810281138148175907E0F0481772
:1026D000590799F4109761F012960C93129713967C
:1026E0001C933296CF01DF91CF911F910F910895E6
:1026F00000936B0210936C02F4CF2115310551F059
:102700004217530738F0A901DB019A01BD01DF012F
:10271000F801C1CFEF01F9CF90936C0280936B0267
:10272000CDCFFE01E20FF31F819391932250310927
:1027300039832883D7CF2091690230916A02232BF5
:1027400041F4209102013091030130936A022093F9
:10275000690220910001309101012115310541F4F8
:102760002DB73EB74091040150910501241B350B54
:10277000E0916902F0916A02E217F307A0F42E1BC0
:102780003F0B2817390778F0AC014E5F5F4F2417D5
:10279000350748F04E0F5F1F50936A02409369025D
:1027A000819391939FCFF0E0E0E09CCFCF93DF93B4
:1027B0000097E9F0FC01329713821282A0916B021C
:1027C000B0916C02ED0130E020E01097A1F420817F
:1027D0003181820F931F2091690230916A0228177C
:1027E000390709F061C0F0936A02E0936902DF9152
:1027F000CF910895EA01CE17DF07E8F54A815B81A2
:102800009E0141155105B1F7E901FB83EA83499126
:102810005991C40FD51FEC17FD0761F48081918198
:102820000296840F951FE9019983888382819381A1
:102830009B838A83F0E0E0E012968D919C91139740
:102840000097B9F52D913C911197CD010296820F19
:10285000931F2091690230916A022817390739F6CF
:10286000309751F510926C0210926B02B0936A028D
:10287000A0936902BCCFD383C28340815181840F6E
:10288000951FC817D90761F44E5F5F4F8881998102
:10289000480F591F518340838A819B819383828390
:1028A0002115310509F0B0CFF0936C02E0936B0273
:1028B0009ECFFD01DC01C0CF13821282D7CFB0E0E2
:1028C000A0E0E5E6F4E10C94A5118C01009751F429
:1028D000CB010E943A138C01C801CDB7DEB7E0E10D
:1028E0000C94C111FC01E60FF71F9C012250310925
:1028F000E217F30708F49DC0D901CD91DC9111973F
:10290000C617D70798F0C530D10530F3CE0104972C
:102910008617970708F3C61BD70B2297C193D1934D
:102920006D937C93CF010E94D613D6CF5B01AC1A76
:10293000BD0A4C018C0E9D1EA0916B02B0916C02E1
:10294000512C412CF12CE12C109731F5809169022A
:1029500090916A028815990509F05CC046165706E1
:1029600008F058C08091000190910101009741F456
:102970008DB79EB74091040150910501841B950BC2
:10298000E817F90708F055C0F0936A02E09369026E
:10299000F90171836083A0CF8D919C91119712965C
:1029A0006C90129713967C901397A815B90559F55A
:1029B0006C0142E0C40ED11CCA14DB0420F1AC014E
:1029C0004A195B09DA011296159780F062827382C8
:1029D00051834083D9016D937C93E114F10471F02C
:1029E000D7011396FC93EE93129776CF22968C0F15
:1029F0009D1FF90191838083F301EFCFF0936C0267
:102A0000E0936B0269CF4816590608F42C017D014A
:102A1000D3019ACFCB010E943A137C01009749F071
:102A2000AE01B8010E941C15C8010E94D61387018F
:102A300053CF10E000E050CFFB01DC0102C0019059
:102A40000D9241505040D8F70895FB01DC010190F0
:102A50000D920020E1F70895F894FFCF00006D0279
:102A6000800000000000FE015E018B014B02BC01F2
:102A70009A01AE010D0A004D6F64653A0042656728
:102A8000696E536574757000456E64536574757036
:102A90000056616C7565200044543A20002050496E
:102AA000442056616C3A20002D2D2D2D2D2D2D2DDD
:082AB0002D2D2D2D2D2D3A00D6
:107E0000112484B714BE81FFF0D085E080938100F7
:107E100082E08093C00088E18093C10086E0809377
:107E2000C20080E18093C4008EE0C9D0259A86E02C
:107E300020E33CEF91E0309385002093840096BBD3
:107E4000B09BFECF1D9AA8958150A9F7CC24DD24C4
:107E500088248394B5E0AB2EA1E19A2EF3E0BF2EE7
:107E6000A2D0813461F49FD0082FAFD0023811F036
:107E7000013811F484E001C083E08DD089C08234E0
:107E800011F484E103C0853419F485E0A6D080C0E4
:107E9000853579F488D0E82EFF2485D0082F10E0AE
:107EA000102F00270E291F29000F111F8ED06801E7
:107EB0006FC0863521F484E090D080E0DECF843638
:107EC00009F040C070D06FD0082F6DD080E0C81688
:107ED00080E7D80618F4F601B7BEE895C0E0D1E017
:107EE00062D089930C17E1F7F0E0CF16F0E7DF06D8
:107EF00018F0F601B7BEE89568D007B600FCFDCFD4
:107F0000A601A0E0B1E02C9130E011968C91119780
:107F100090E0982F8827822B932B1296FA010C0160
:107F200087BEE89511244E5F5F4FF1E0A038BF0790
:107F300051F7F601A7BEE89507B600FCFDCF97BE46
:107F4000E89526C08437B1F42ED02DD0F82E2BD052
:107F50003CD0F601EF2C8F010F5F1F4F84911BD097
:107F6000EA94F801C1F70894C11CD11CFA94CF0C13
:107F7000D11C0EC0853739F428D08EE10CD085E9AC
:107F80000AD08FE07ACF813511F488E018D01DD067
:107F900080E101D065CF982F8091C00085FFFCCF94
:107FA0009093C60008958091C00087FFFCCF809118
:107FB000C00084FD01C0A8958091C6000895E0E648
:107FC000F0E098E1908380830895EDDF803219F02E
:107FD00088E0F5DFFFCF84E1DECF1F93182FE3DFCA
:107FE0001150E9F7F2DF1F91089580E0E8DFEE27F6
:047FF000FF270994CA
:027FFE00040479
:00000001FF
