:100000000C9462000C948A000C948A000C948A0070
:100010000C948A000C948A000C948A000C948A0038
:100020000C948A000C948A000C948A000C948A0028
:100030000C948A000C948A000C948A000C948A0018
:100040000C94A8030C948A000C948A000C948A00E7
:100050000C948A000C948A000C948A000C948A00F8
:100060000C948A000C948A000000000024002700F1
:100070002A0000000000250028002B0000000000DE
:1000800023002600290004040404040404040202DA
:100090000202020203030303030301020408102007
:1000A0004080010204081020010204081020000012
:1000B0000008000201000003040700000000000027
:1000C00000003B0711241FBECFEFD8E0DEBFCDBF3D
:1000D00011E0A0E0B1E0E4E9F7E102C005900D9283
:1000E000AE30B107D9F721E0AEE0B1E001C01D921A
:1000F000A838B207E1F710E0C2E6D0E004C02197CB
:10010000FE010E949D0AC136D107C9F70E94F20381
:100110000C94C80B0C940000CF92DF92EF92FF92E8
:10012000809169018E3008F08E50877080648093D2
:100130007C0080917A00806480937A0080917A00BC
:1001400086FDFCCF8091780090917900E0916C0160
:10015000F0916D01C0906A01D0906B0196018C15F1
:100160009D052CF09F018E179F070CF49C010D2C10
:10017000000CEE08FF08032E000C440B550B2C1945
:100180003D094E095F09AFEFB3E00E9419089F01D6
:10019000FF0F440B550B2C193D094E095F090E94B6
:1001A000FA07C901FF90EF90DF90CF900895833058
:1001B00081F028F4813099F08230A9F008958730D9
:1001C000A9F08830C9F08430B1F4809180008F7D2F
:1001D00003C0809180008F7780938000089584B55C
:1001E0008F7784BD089584B58F7DFBCF8091B0005B
:1001F0008F778093B00008958091B0008F7DF9CF04
:100200001F93CF93DF93282F30E0F901E255FF4F82
:100210008491F901E656FF4FD491F901EA57FF4F57
:10022000C491CC23A9F0162F81110E94D700EC2F86
:10023000F0E0EE0FFF1FEE58FF4FA591B4918FB77E
:10024000F894EC91111108C0D095DE23DC938FBF98
:10025000DF91CF911F910895DE2BF8CFCF93DF93DD
:1002600090E0FC01E656FF4F24918A579F4FFC0116
:1002700084918823D1F090E0880F991FFC01E85900
:10028000FF4FA591B491FC01EE58FF4FC591D49159
:10029000623071F49FB7F8943C91822F809583234C
:1002A0008C93E8812E2B28839FBFDF91CF910895F7
:1002B0008FB7F894EC912E2B2C938FBFF6CF1F9312
:1002C000CF93DF93182FEB0161E00E942E0120975E
:1002D00039F460E0812FDF91CF911F910C940001E0
:1002E000CF3FD10511F461E0F5CFE12FF0E0E25509
:1002F000FF4FE491E33031F140F4E130B1F0E2300E
:10030000E1F0C038D1057CF7E4CFE73029F1E830DF
:1003100059F1E430B1F780918000806280938000D1
:10032000D0938B00C0938A0004C084B5806884BDDC
:10033000C7BDDF91CF911F91089584B5806284BDC0
:10034000C8BDF7CF80918000806880938000D093F3
:100350008900C0938800EDCF8091B00080688093C1
:10036000B000C093B300E5CF8091B000806280936D
:10037000B000C093B400DDCF3FB7F8948091130173
:1003800090911401A0911501B091160126B5A89B7A
:1003900005C02F3F19F00196A11DB11D3FBFBA2F17
:1003A000A92F982F8827BC01CD01620F711D811DD7
:1003B000911D42E0660F771F881F991F4A95D1F75C
:1003C00008958F929F92AF92BF92CF92DF92EF9259
:1003D000FF926B017C010E94BC014B015C01C114C6
:1003E000D104E104F104B9F00E94BC016819790953
:1003F0008A099B09683E73408105910580F321E0DD
:10040000C21AD108E108F10888EE880E83E0981E30
:10041000A11CB11CE4CFFF90EF90DF90CF90BF9074
:10042000AF909F908F900895CF93DF93EC0160E0A1
:1004300089810E94000161E088810E94000164E1DD
:1004400070E08A81DF91CF910C945F01CF92DF92AF
:10045000EF92FF920F931F93CF93DF938C01EB01E9
:1004600061308FEF78070CF45FC06F3F710509F0C2
:1004700034F52097C1F460E0F80181810E94000109
:1004800060E0F80180810E94000170E060E0F80106
:100490008281DF91CF911F910F91FF90EF90DF90BC
:1004A000CF900C945F011C161D065CF060E0F80113
:1004B00080810E94000161E0F80181810AC0CFEFD4
:1004C000D0E060E0F80181810E94000161E0F80164
:1004D00080810E940001F801C580D6800D2C000C9F
:1004E000EE08FF0823813481032E000C440B550BCA
:1004F0002C193D094E095F09DE01D7FF03C0B195F4
:10050000A195B1090E9424082FEF30E040E050E0AF
:100510000E94FA07CA01B9016C0D7D1D8E1D9F1D39
:10052000F80170876783B4CFC1E0DFEFBFCFCF9210
:10053000DF92EF92FF920F931F93CF93DF938C0183
:10054000D0E0C0E06B01770FEE08FF088BE791E089
:100550000E94140282E791E00E94140261E086E0AA
:100560000E94000164E670E080E090E00E94E101FA
:1005700070E060E08BE791E00E94260270E060E0AE
:1005800082E791E00E94260260E086E00E9400017E
:10059000C701B6010E94E10121960C171D07B1F6B3
:1005A000DF91CF911F910F91FF90EF90DF90CF904F
:1005B0000895CF93DF93EC0161E088810E942E01C2
:1005C00061E089810E942E0161E08A810E942E01F2
:1005D00070E060E0CE01DF91CF910C942602809113
:1005E000670190916801009761F481E090E0909339
:1005F00068018093670168EC70E085E090E00C94FE
:100600009702019749F4109268011092670164E61D
:1006100070E082E090E0F3CF08954F925F926F9286
:100620007F928F929F92AF92BF92CF92DF92EF9282
:10063000FF920F931F93CF93DF93EC012A013B01AD
:10064000C901B8010E9474092A813B814C815D81F6
:100650000E94050A6B017C018A849B84AC84BD8462
:1006600020E030E040E85FE30E94000A181634F40E
:10067000C12CD12C80E8E82E8FE3F82EA70196013B
:1006800060E070E080E89FE30E945D08A5019401AE
:100690000E94050A4B015C01A7019601C301B2014A
:1006A0000E94050A9B01AC01C501B4010E945E08CD
:1006B0006A877B878C879D87DF91CF911F910F91F0
:1006C000FF90EF90DF90CF90BF90AF909F908F9072
:1006D0007F906F905F904F9008958F929F92AF920E
:1006E000BF92CF92DF92EF92FF920F931F932FB79B
:1006F000F894C0900F01D0901001E0901101F0909B
:1007000012012FBFDC0116960D911D912D913C9188
:10071000199746015701801A910AA20AB30A950156
:1007200084011696CD92DD92ED92FC921997ED918F
:10073000FC910280F381E02D09951F910F91FF90AC
:10074000EF90DF90CF90BF90AF909F908F900895E3
:100750001F920F920FB60F9211242F933F938F93F6
:100760009F93AF93BF9380910F0190911001A0913F
:100770001101B091120130910E0123E0230F2D37AA
:1007800058F50196A11DB11D20930E0180930F0114
:1007900090931001A0931101B09312018091130165
:1007A00090911401A0911501B09116010196A11D1F
:1007B000B11D8093130190931401A0931501B09380
:1007C0001601BF91AF919F918F913F912F910F9003
:1007D0000FBE0F901F90189526E8230F0296A11DBB
:1007E000B11DD2CFCF93DF93CDB7DEB768970FB6E9
:1007F000F894DEBF0FBECDBF789484B5826084BD0F
:1008000084B5816084BD85B5826085BD85B5816014
:1008100085BD80916E00816080936E001092810092
:10082000809181008260809381008091810081604D
:10083000809381008091800081608093800080910E
:10084000B10084608093B1008091B000816080939A
:10085000B00080917A00846080937A0080917A0061
:10086000826080937A0080917A00816080937A0020
:1008700080917A00806880937A001092C10062E0D3
:1008800080911E010E942E0182E791E00E94D90210
:100890008BE791E00E94D90261E086E00E942E0180
:1008A00080E090E0AAEFB3E4809357019093580161
:1008B000A0935901B0935A018CE190E090936B01A1
:1008C00080936A0180E991E090936D0180936C01BF
:1008D00064E670E083E090E00E94970290E0292EA9
:1008E00090E0392E11E020911E0130911F01332735
:1008F000F901E255FF4F8491F901E656FF4FF4905C
:10090000F901EA57FF4FE490EE2009F414C2811177
:100910000E94D700EE2DF0E0EE0FFF1FE458FF4FCE
:10092000A591B491EC91FE2291E080E009F490E071
:10093000E92EF82E80912201882309F4FFC10E943C
:10094000BC01C0902701D0902801E0902901F090CF
:100950002A019B01AC012C193D094E095F0969016F
:100960007A01609327017093280180932901909365
:100970002A018091200190912101092E000CAA0BDF
:10098000BB0B8C159D05AE05BF0510F4109222011E
:100990008091230190912401892B09F0ECC1E09111
:1009A0001B01F0911C01309709F0099580911D0100
:1009B000811109C010931D01E0911701F0911801F8
:1009C000309709F00995809167019091680101972E
:1009D00009F033C20E948C007C010E94BC0180900F
:1009E000630190906401A0906501B09066019B0145
:1009F000AC01281939094A095B0929833A834B83D9
:100A00005C836093630170936401809365019093AC
:100A10006601B701FF0C880B990B0E94740920E056
:100A200030E04CE852E40E945D089B01AC0160910B
:100A30005701709158018091590190915A010E947B
:100A40005D082B013C0120913B0130913C0140911C
:100A50003D0150913E010E94050A20E030E0A901CD
:100A60000E945E08698B7A8B8B8B9C8B80915B01DB
:100A700090915C01A0915D01B0915E018D839E8398
:100A8000AF83B88769817A818B819C810E947209CA
:100A900069877A878B879C872D813E814F81588516
:100AA000C301B2010E945E0820E030E040E05FE355
:100AB0000E94050A29853A854B855C850E94050AB6
:100AC00020E034E244E759E40E94CA0820913F0143
:100AD0003091400140914101509142010E94050A2C
:100AE0006B017C0120914B0130914C0140914D01F3
:100AF00050914E012D8B3E8B4F8B588F80915F0113
:100B000090916001A0916101B09162018D879E87F3
:100B1000AF87B88B9C01AD01C701B6010E945E088A
:100B20004B015C0120E030E0A9010E94000A181688
:100B300024F0B7FAB094B7F8B094A50194016D8988
:100B40007E898F89988D0E945D0820E030E0A901A0
:100B50000E94000A18160CF41AC170E060E090E0E0
:100B600080E0272F362F492F582F6D857E858F8562
:100B700098890E945E089B01AC0120935F0130932D
:100B80006001409361015093620169897A898B8980
:100B90009C890E945E084B015C0129813A814B814E
:100BA0005C81232B242B252B09F451C080914F010C
:100BB00090915001A0915101B091520189839A8383
:100BC000AB83BC8320E030E0A901C701B6010E94DD
:100BD000000A181624F0F7FAF094F7F8F094A70139
:100BE000960169817A818B819C810E945D0820E059
:100BF00030E0A9010E94000A20E030E0A9011816A7
:100C000004F52D813E814F815885C301B2010E94B8
:100C10005D0829853A854B855C850E94CA0820E0DD
:100C200034E244E759E40E94CA082091430130911C
:100C3000440140914501509146010E94050A9B01E3
:100C4000AC01C501B4010E945E084B015C014092F9
:100C50005B0150925C0160925D0170925E01809236
:100C6000370190923801A0923901B0923A01C50142
:100C7000B4010E943C0964379FEF79070CF4B3C0BC
:100C80006D3871050CF0B2C06115710509F084C0B2
:100C9000AFEFB0E0B0933001A0932F01B0933401D7
:100CA000A0933301E0903501F0903601609133015B
:100CB00070913401072E000C880B990B0E94740967
:100CC000AB01BC01D701ED91FC910190F081E02DC9
:100CD000C70109950E943C0982E791E00E94260223
:100CE000E0903101F090320160912F01709130015C
:100CF000072E000C880B990B0E947409AB01BC01F4
:100D0000D701ED91FC910190F081E02DC70109958B
:100D10000E943C098BE791E00E9426026AE070E0A5
:100D200080E090E00E94E1012114310409F4DBCD60
:100D30000E940000D8CDF12CE12CFCCD8091250142
:100D4000909126018E159F0509F422CE0E94BC01C8
:100D500060932701709328018093290190932A01C1
:100D600010932201F0922601E0922501F0922401D5
:100D7000E09223010DCE80911D01882309F423CE3A
:100D800010921D01E0911901F0911A0119CE7C2DEC
:100D90006D2D9E2D8F2DE5CE77FF2AC02FEF30E0F1
:100DA0003093300120932F01072E000C880B990BF4
:100DB0000E94740928EB36E046E35CE30E94050AD2
:100DC00020E030E040E85FE30E945E0820E030E091
:100DD0004FE753E40E94050A0E943C0970933401D6
:100DE000609333015FCF64E77FEFD8CF6CE870E0AA
:100DF0004FEF50E05093340140933301072E000C25
:100E0000880B990B0E94740928EB36E046E35CEBF3
:100E10000E94050A20E030E040E85FE30E945E089F
:100E200020E030E04FE753E40E94050A0E943C09AD
:100E30007093300160932F0135CF70E060E082E75E
:100E400091E00E94260270E060E08BE791E00E9452
:100E500026020E948C002FEF30E0DC010E94960AEF
:100E60002FEF33E040E050E00E94FA07B90186E03E
:100E70000E945F0153CFCF92DF92EF92FF92CF9308
:100E8000DF93E7E1F1E01682138681E090E0958739
:100E9000848797878687108A118A128A138A148A10
:100EA000158A168A178A8FEE92E0918380831582C5
:100EB00014821382128287E090E09087878388EC07
:100EC00090E092878187E2E7F1E08DE080838CE01B
:100ED00081838BE082832FEF30E0348323838EE69F
:100EE00090E096838583EBE7F1E048E0408349E0BA
:100EF00041834AE0428334832383968385838EE053
:100F000090E00E94A30ACAE0D1E0FC01D183C08333
:100F10002AE0C22E27EDD22E23E2E22E2CE3F22E7F
:100F2000C282D382E482F5829093360180933501A8
:100F30008EE090E00E94A30AFC01D183C083C282AC
:100F4000D382E482F5829093320180933101E9E605
:100F5000F1E0128211828FEF93E094838383968372
:100F60008583108617828EE08083E7E3F1E080E1DD
:100F700097E2A0E0B0E0848F958FA68FB78F10A284
:100F800011A212A213A214A615A616A617A68DECDE
:100F90009CECACECBEE384839583A683B7838AE99B
:100FA00099E9A9E9BEE380879187A287B38780E0AA
:100FB00090E0A0E0BFE384879587A687B78780E0AD
:100FC00090E0AFE7B3E4808B918BA28BB38B40E0D2
:100FD00050E060E271E4448B558B668B778B808F99
:100FE000918FA28FB38FDF91CF91FF90EF90DF9021
:100FF000CF900895052E97FB1EF400940E941108CF
:1010000057FD07D00E942C0807FC03D04EF40C9427
:10101000110850954095309521953F4F4F4F5F4FA8
:10102000089590958095709561957F4F8F4F9F4F54
:1010300008950E944E08A59F900DB49F900DA49F07
:10104000800D911D11240895B7FF0C9419080E947A
:101050001908821B930B0895A1E21A2EAA1BBB1B31
:10106000FD010DC0AA1FBB1FEE1FFF1FA217B30774
:10107000E407F50720F0A21BB30BE40BF50B661F8A
:10108000771F881F991F1A9469F76095709580954E
:1010900090959B01AC01BD01CF010895A29FB001C5
:1010A000B39FC001A39F700D811D1124911DB29F9C
:1010B000700D811D1124911D08955058BB27AA273A
:1010C0000E9475080C94C6090E94B80938F00E9465
:1010D000BF0920F039F49F3F19F426F40C94B509A8
:1010E0000EF4E095E7FB0C94AF09E92F0E94D709B5
:1010F00058F3BA17620773078407950720F079F44D
:10110000A6F50C94F9090EF4E0950B2EBA2FA02D3C
:101110000B01B90190010C01CA01A0011124FF27A4
:10112000591B99F0593F50F4503E68F11A16F0409F
:10113000A22F232F342F4427585FF3CF469537959E
:101140002795A795F0405395C9F77EF41F16BA0B63
:10115000620B730B840BBAF09150A1F0FF0FBB1F11
:10116000661F771F881FC2F70EC0BA0F621F731F5A
:10117000841F48F4879577956795B795F7959E3FB7
:1011800008F0B0CF9395880F08F09927EE0F979548
:10119000879508950E94DE080C94C6090E94BF0935
:1011A00058F00E94B80940F029F45F3F29F00C94F0
:1011B000AF0951110C94FA090C94B5090E94D70992
:1011C00068F39923B1F3552391F3951B550BBB2776
:1011D000AA2762177307840738F09F5F5F4F220FBB
:1011E000331F441FAA1FA9F335D00E2E3AF0E0E8B2
:1011F00032D091505040E695001CCAF72BD0FE2FFC
:1012000029D0660F771F881FBB1F2617370748078F
:10121000AB07B0E809F0BB0B802DBF01FF27935847
:101220005F4F3AF09E3F510578F00C94AF090C9453
:10123000FA095F3FE4F3983ED4F386957795679576
:10124000B795F7959F5FC9F7880F911D969587957C
:1012500097F90895E1E0660F771F881FBB1F62179B
:1012600073078407BA0720F0621B730B840BBA0B59
:10127000EE1F88F7E09508950E9443096894B11124
:101280000C94FA0908950E94DF0988F09F5798F09E
:10129000B92F9927B751B0F0E1F0660F771F881F7B
:1012A000991F1AF0BA95C9F714C0B13091F00E9495
:1012B000F909B1E008950C94F909672F782F882770
:1012C000B85F39F0B93FCCF3869577956795B395BC
:1012D000D9F73EF490958095709561957F4F8F4F2B
:1012E0009F4F0895E89409C097FB3EF49095809530
:1012F000709561957F4F8F4F9F4F9923A9F0F92FDC
:1013000096E9BB279395F695879577956795B79559
:10131000F111F8CFFAF4BB0F11F460FF1BC06F5F3F
:101320007F4F8F4F9F4F16C0882311F096E911C051
:10133000772321F09EE8872F762F05C0662371F072
:1013400096E8862F70E060E02AF09A95660F771F86
:10135000881FDAF7880F9695879597F9089597F97A
:101360009F6780E870E060E008959FEF80EC08954B
:1013700000240A9416161706180609060895002474
:101380000A9412161306140605060895092E0394EE
:10139000000C11F4882352F0BB0F40F4BF2B11F462
:1013A00060FF04C06F5F7F4F8F4F9F4F089557FDC1
:1013B0009058440F551F59F05F3F71F04795880FC3
:1013C00097FB991F61F09F3F79F08795089512165A
:1013D00013061406551FF2CF4695F1DF08C0161606
:1013E00017061806991FF1CF8695710561050894B7
:1013F0000895E894BB2766277727CB0197F90895CE
:101400000E94720A08F48FEF08950E94180A0C9443
:10141000C6090E94B80938F00E94BF0920F0952340
:1014200011F00C94AF090C94B50911240C94FA092D
:101430000E94D70970F3959FC1F3950F50E0551F97
:10144000629FF001729FBB27F00DB11D639FAA2719
:10145000F00DB11DAA1F649F6627B00DA11D661F68
:10146000829F2227B00DA11D621F739FB00DA11D89
:10147000621F839FA00D611D221F749F3327A00D43
:10148000611D231F849F600D211D822F762F6A2FDF
:1014900011249F5750409AF0F1F088234AF0EE0F44
:1014A000FF1FBB1F661F771F881F91505040A9F771
:1014B0009E3F510580F00C94AF090C94FA095F3FF0
:1014C000E4F3983ED4F3869577956795B795F795AD
:1014D000E7959F5FC1F7FE2B880F911D9695879525
:1014E00097F90895990F0008550FAA0BE0E8FEEF51
:1014F00016161706E807F907C0F012161306E407D8
:10150000F50798F0621B730B840B950B39F40A26D0
:1015100061F0232B242B252B21F408950A2609F4AE
:10152000A140A6958FEF811D811D08950E944E0850
:10153000B7FF0895821B930B0895EE0FFF1F0590D0
:10154000F491E02D09940F931F93CF93DF93823092
:10155000910510F482E090E0E0918601F09187011E
:1015600030E020E0B0E0A0E0309799F4211531059B
:1015700009F44AC0281B390B24303105D8F58A817B
:101580009B816115710589F1FB0193838283FE01C3
:1015900011C0408151810281138148175907E0F041
:1015A0004817590799F4109761F012960C93129707
:1015B00013961C933296CF01DF91CF911F910F911B
:1015C00008950093860110938701F4CF211531050A
:1015D00051F04217530738F0A901DB019A01BD0110
:1015E000DF01F801C1CFEF01F9CF9093870180931C
:1015F0008601CDCFFE01E20FF31F8193919322501C
:10160000310939832883D7CF209184013091850116
:10161000232B41F420910201309103013093850185
:1016200020938401209100013091010121153105A1
:1016300041F42DB73EB74091040150910501241BA0
:10164000350BE0918401F0918501E217F307A0F4D6
:101650002E1B3F0B2817390778F0AC014E5F5F4F08
:101660002417350748F04E0F5F1F509385014093B4
:101670008401819391939FCFF0E0E0E09CCFCF93E2
:10168000DF930097E9F0FC01329713821282A09158
:101690008601B0918701ED0130E020E01097A1F4C0
:1016A00020813181820F931F209184013091850127
:1016B0002817390709F061C0F0938501E093840190
:1016C000DF91CF910895EA01CE17DF07E8F54A814F
:1016D0005B819E0141155105B1F7E901FB83EA8366
:1016E00049915991C40FD51FEC17FD0761F4808112
:1016F00091810296840F951FE901998388838281E5
:1017000093819B838A83F0E0E0E012968D919C9117
:1017100013970097B9F52D913C911197CD01029641
:10172000820F931F2091840130918501281739077A
:1017300039F6309751F51092870110928601B093D7
:101740008501A0938401BCCFD383C28340815181A2
:10175000840F951FC817D90761F44E5F5F4F8881CA
:101760009981480F591F518340838A819B819383BC
:1017700082832115310509F0B0CFF0938701E09302
:1017800086019ECFFD01DC01C0CF13821282D7CF2C
:04179000F894FFCFFB
:0E179400000088018000000000006D030D03BE
:00000001FF
